:020000040800F2
:10000000000005209D7500089166000893660008B1
:1000100095660008976600089966000800000000D1
:100020000000000000000000000000000145000882
:100030009B66000800000000A14500089D660008BE
:10004000ED750008ED750008ED750008ED75000808
:10005000ED750008ED750008ED750008ED750008F8
:10006000ED750008ED750008ED750008ED750008E8
:10007000ED750008ED750008ED750008ED750008D8
:10008000ED750008ED750008ED750008ED750008C8
:10009000ED750008ED750008ED750008ED750008B8
:1000A000ED750008ED750008ED750008ED750008A8
:1000B000ED750008ED750008ED750008ED75000898
:1000C000ED750008ED750008ED750008ED75000888
:1000D000ED750008ED750008ED750008ED75000878
:1000E000ED750008ED750008ED750008ED75000868
:1000F000ED750008ED750008ED750008ED75000858
:10010000ED750008ED750008ED750008ED75000847
:10011000ED750008ED750008ED750008ED75000837
:10012000ED750008ED750008ED750008ED75000827
:10013000ED750008ED750008ED750008ED75000817
:10014000ED750008ED750008ED750008ED75000807
:10015000ED750008ED750008ED750008ED750008F7
:10016000ED750008ED750008ED750008ED750008E7
:10017000ED750008B5660008ED7500080000000088
:10018000ED750008ED750008ED750008ED750008C7
:10019000ED750008ED750008ED750008ED750008B7
:1001A000ED750008ED750008ED750008ED750008A7
:1001B000ED750008ED750008ED750008ED75000897
:0801C000ED750008ED75000863
:1001D00010B5054C237833B9044B13B10448AFF381
:1001E00000800123237010BD700200200000000079
:1001F0007089000808B5034B1BB103490348AFF3EE
:10020000008008BD00000000740200207089000812
:1002100001F0FF01102A2BDB10F0070F08D010F8B7
:10022000013B013A8B422DD010F0070F42B3F6D1BB
:10023000F0B441EA012141EA014122F007047FF0D4
:1002400000070023F0E80256083C85EA010586EA2B
:10025000010685FA47F5A3FA87F586FA47F6A5FA67
:1002600087F68EB9EED1F0BC01F0FF0102F0070273
:1002700032B110F8013B013A83EA010313B1F8D11E
:100280000020704701387047002D06BF35460338FF
:10029000073815F0010F07D1013015F4807F02BF38
:1002A000013015F4C03F0130F0BC0138704700BF89
:1002B00053B94AB9002908BF00281CBF4FF0FF31CD
:1002C0004FF0FF3000F07AB9ADF1080C6DE904CEC3
:1002D00000F006F8DDF804E0DDE9022304B0704721
:1002E0002DE9F0478C460D460446089E002B51D15F
:1002F0008A4217466DD9B2FA82FEBEF1000F0BD0CA
:10030000CEF1200C01FA0EF520FA0CFC02FA0EF7E1
:100310004CEA050C00FA0EF44FEA174A250CBCFB18
:10032000FAF81FFA87F90AFB18CC45EA0C4508FBD6
:1003300009F3AB420AD9ED1908F1FF3280F02381AD
:10034000AB4240F22081A8F102083D44ED1AA4B26C
:10035000B5FBFAF00AFB105544EA054400FB09F925
:10036000A14509D9E41900F1FF3380F00A81A145C4
:1003700040F2078102383C44A4EB090440EA0840FB
:100380000021002E61D024FA0EF400233460736043
:10039000BDE8F0878B4207D9002E54D0002186E8B3
:1003A00021000846BDE8F087B3FA83F1002940F048
:1003B0008E80AB4202D3824200F2FA80841A65EB4F
:1003C00003050120AC46002E3FD086E81010BDE8A2
:1003D000F08712B90127B7FBF2F7B7FA87FEBEF133
:1003E000000F34D1EB1B3A0C1FFA87FC0121B3FB41
:1003F000F2F8250C02FB183345EA03450CFB08F321
:10040000AB4207D9ED1908F1FF3002D2AB4200F23E
:10041000D1808046ED1AA3B2B5FBF2F002FB105575
:1004200043EA05440CFB00FCA44507D9E41900F19C
:10043000FF3302D2A44500F2B8801846A4EB0C04A6
:1004400040EA08409DE731463046BDE8F087CEF1EE
:10045000200405FA0EF307FA0EF720FA04F83A0C16
:1004600025FA04F448EA0308B4FBF2F14FEA184510
:1004700002FB11441FFA87FC45EA044501FB0CF31B
:10048000AB4200FA0EF409D9ED1901F1FF3080F00A
:100490008A80AB4240F2878002393D44EB1A1FFA52
:1004A00088F5B3FBF2F002FB103345EA034500FB8D
:1004B0000CF3AB4207D9ED1900F1FF386FD2AB4214
:1004C0006DD902383D44EB1A40EA01418FE7C1F192
:1004D000200722FA07F88B4005FA01F448EA0303E3
:1004E00020FA07FE4FEA134CFD404EEA040EB5FB1E
:1004F000FCF94FEA1E440CFB19551FFA83F844EA35
:10050000054509FB08F4AC4202FA01F200FA01FACF
:1005100008D9ED1809F1FF3043D2AC4241D9A9F115
:1005200002091D442D1B1FFA8EFEB5FBFCF00CFBCF
:1005300010554EEA054400FB08F8A04507D9E41819
:1005400000F1FF3529D2A04527D902381C4440EAE2
:100550000940A4EB0804A0FB02894C45C6464D4661
:1005600015D312D056B1BAEB0E0364EB050404FAAE
:1005700007F7CB401F43CC40376074600021BDE8D3
:10058000F0871846F8E69046E0E6C245EAD2B8EBB6
:10059000020E69EB03050138E4E72846D7E7404639
:1005A00091E78146BEE7014678E702383C4445E7DB
:1005B000084608E7A8F102083D442BE7704700BF52
:1005C00038B50E4B05460E4A18784FF47A73B3FBD4
:1005D000F0F31068B0FBF3F000F09EF8044658B951
:1005E0000F2D09D8024629464FF0FF3000F04EF893
:1005F000044B20461D6038BD012038BD000000209E
:10060000500000200400002008B5032000F02CF862
:100610000F20FFF7D5FF05F0FBFE002008BD00000E
:10062000034A044B11681B780B441360704700BFEA
:100630003040002000000020014B1868704700BFC8
:100640003040002038B50446FFF7F6FF0546631C2E
:100650001EBF044B1B78E418FFF7EEFF401B8442DB
:10066000FAD838BD00000020074A0002D36800F421
:10067000E06023F4E0631B041B0C43F0BF6343F40E
:1006800000330343D360704700ED00E0194B30B5F1
:10069000DC68C4F30224C4F10703251D042B28BF22
:1006A0000423062D4FF001058CBF033C002405FAFE
:1006B00003F3002803F1FF3301EA030101FA04F117
:1006C00005FA04F404F1FF3402EA040242EA0102EA
:1006D0004FEA021207DB00F16040D2B200F5614040
:1006E00080F8002330BD00F00F00D2B2024B1A5444
:1006F00030BD00BF00ED00E014ED00E0002808DB95
:100700004209012300F01F0003FA00F0014B43F8F7
:100710002200704700E100E00138B0F1807F0AD28A
:10072000064BF021064A5860002082F82310072269
:1007300098601A6070470120704700BF10E000E029
:1007400000ED00E0BFF35F8F044A536A23F4803367
:1007500053620022024B5A60704700BF00ED00E078
:1007600090ED00E0064A40F00100064B5860536AE5
:1007700043F480335362BFF34F8FBFF36F8F7047E3
:1007800000ED00E090ED00E04378124A10B5936070
:100790000178D9B14368D360C37A047B1B0643EA6E
:1007A00004730B43817A43EAC143417B43EA8143AB
:1007B000817B43EA4143C17B43EA0143417A43EAF7
:1007C0000123017A43EA4103136110BDD160116135
:1007D00010BD00BF90ED00E070B50468049D666C2C
:1007E00045EA034306F04046334363644368E263EB
:1007F000B3F5403F30D186681EB1012E03D121F000
:100800007F41A16370BD022E01F47F0301F47F4597
:10081000C8B207D1D90CAD0AC90241EA451141EA73
:10082000D001EEE7032E01F07F420AD1DB0CED0A86
:100830009B02D10F43EA451343EAD00343EAC13197
:10084000DFE7190D2D0B0902130F41EA051141EAEB
:10085000101141EA0331D4E7E16070BD10B50446E0
:1008600030B390F8393003F0FF021BB980F838201C
:1008700005F0EEFD226802236168002084F839301B
:10088000136823F440330B43A1681360536B23F0C8
:1008900007030B43E1685363136C23F47F5323F086
:1008A0003F030B4313640123E06384F8393010BD28
:1008B000012010BD73B590F838400546012C4FF06B
:1008C00002040FD080F839400126069C80F8386079
:1008D0000094FFF781FF2A680020136833431360F8
:1008E00002B070BD2046FBE7002373B501930446B8
:1008F00003680D461B68DB0717D42268D369526A68
:1009000013439E0606D5FFF797FE064623685A68EE
:10091000D20643D52368122200209A60012384F86E
:10092000380084F8393002B070BDFFF785FE064606
:1009300023685A689207E0D45A680192019A12F02B
:10094000210F17D0019A950603D5E26B42F00202FF
:10095000E263019AD00703D5E26B42F00102E26341
:1009600021229A600423012084F83930002384F87E
:100970003830D8E7691CDCD0FFF75EFE801B85426B
:1009800001D3002DD4D1E36B032043F02003E363B4
:10099000002384F8390084F83830C4E75A6801929B
:1009A000019A12F0290F16D0019A160703D5E26BAF
:1009B00042F00402E263019A950603D5E26B42F02D
:1009C0000202E263019AD00703D5E26B42F0010212
:1009D000E2632922C5E7691C99D0FFF72DFE801B31
:1009E0008542D0D3002D91D1CDE7000090F838306A
:1009F000012B4FF00203F0B537D00E01012280F831
:100A00003930831980F838201C4FDD691A6A5C6A16
:100A100045EA0242093D0368012D0FD804F07F4EDC
:100A20004EEA020269B9596A39400A435A62826938
:100A30009A61426A22F07F429A6210E042EA0462BE
:100A4000A9B1D9690644012D01EA070142EA010270
:100A5000DA61B2691A6102D824F07F441C62012372
:100A600080F83930002380F838301846F0BD596AD4
:100A700039400A435A6282699A61F0E7F0FFFC004C
:100A80002DE9F04F0B6885B0DFF8C081019300239A
:100A90006C4ADFF8BC910124019D9C402540AC428A
:100AA00040F0B6804C684FEA430E24F0100C0CF175
:100AB000FF36012E12D80326876806FA0EF627EABB
:100AC0000607CE6806FA0EF63E438660C4F30016AB
:100AD00047689E4027EA05073E4346600326C768ED
:100AE000BCF1020F06FA0EF66FEA060607EA060ADE
:100AF0008F6807FA0EF747EA0A07C76016D14FEA70
:100B0000D30A03F0070B4FF00F0C00EB8A0A4FEAF1
:100B10008B0BDAF820700CFA0BFC27EA0C0C0F692F
:100B200007FA0BF747EA0C07CAF8207007683E403F
:100B300004F0030707FA0EFE4EEA06060660E6001A
:100B400066D5D8F8446023F0030703F0030E4FF096
:100B50000F0C46F4804607F180474FEA8E0EC8F826
:100B6000446007F59C37D8F8446006F48046039645
:100B7000039E0CFA0EF6D7F808A02AEA060C324EAD
:100B8000B0424CD006F58066B0424AD006F5806689
:100B9000B04248D006F58066B04246D006F5806681
:100BA000B04244D0484544D006F50066B04242D039
:100BB00006F58066B04240D006F58066B0423ED071
:100BC00006F58066B04214BF0A26092606FA0EF61C
:100BD00014F4803F46EA0C06BE606FEA050716680B
:100BE0000CBF3E402E4314F4003F166056680CBF05
:100BF0003E402E4314F4801F566096680CBF3E4062
:100C00002E43A4029660D66854BF3E402E43D66061
:100C10000133102B7FF43FAF05B0BDE8F08F002605
:100C2000D4E70126D2E70226D0E70326CEE7042642
:100C3000CCE70526CAE70626C8E70726C6E7082642
:100C4000C4E700BF003C0140000002400038024001
:100C5000001402400AB1816170470904FBE743694F
:100C60000B4218BF0904816170472DE9FF47044614
:100C700090F8B8029DF8307001289DF834E0BDF876
:100C800038C029D00125002612F0800F4FF028002F
:100C900084F8B85202F07F0900FB014008BF3546D6
:100CA00080F83D6080F83830A0F840C080F83910F6
:100CB00080F83FE080F83A9080F83B5080F83C7034
:100CC000CDF808C020688DE8804001F0C9FE84F8A6
:100CD000B86204B0BDE8F0870220FAE790F8B832B5
:100CE000012B10B5044609D0012380F8B832006802
:100CF00001F044FF002084F8B80210BD022010BDAE
:100D00002DE9F04107468AB0002841D090F8B93269
:100D1000046803F0FF021BB980F8B82206F016FB46
:100D200003236D4607F104083E4687F8B932E36BAA
:100D30003C4613F4807354F8100B08BF3B6101F07C
:100D400052FD0FCC0FC50FCC0FC594E8030085E80A
:100D5000030098E80E0038686D4601F003FD56F870
:100D6000100B012101F045FD0FCE0FC50FCE0FC5B1
:100D700094E8030085E8030098E80E00386801F065
:100D8000F7FD0123002087F8B9320AB0BDE8F081F1
:100D90000120FAE7F0B528249DF81470069E04FBA4
:100DA0000104BDF81C509DF820E084F83B2084F835
:100DB0003F307FB90327022B84F83DE084F842706E
:100DC0002BD0BB4229D0012B31D12823002203FB99
:100DD00001032AE04FF0020E84F842E0032B26D8EC
:100DE00001A454F823F000BFF90D0008CB0D000852
:100DF0001B0E00081B0E0008012F18D1BAB925B927
:100E0000282303FB010383F85170282303FB01030C
:100E100093F851204AB1022207E0282303FB010383
:100E2000D2B993F85140002CF5D183F84220282400
:100E3000002204FB010383F8391019465E649D64A7
:100E4000383183F85C20DA6483F85D20027C006826
:100E5000BDE8F04001F0F6BE93F85020DAE700BF9D
:100E60002DE9F04F066887B00446304601F020FDBA
:100E7000012840F0A780206801F016FD002800F04E
:100E8000A180206801F010FD830203D523684FF490
:100E900000125A61206801F007FDC70203D52368DC
:100EA0004FF480125A61206801F0FEFC450103D521
:100EB00023684FF080625A61206801F0F5FC8007DA
:100EC00002D5236802225A61206801F0EDFC8100FE
:100ED0000ED523684FF000525A61D6F84034DA0735
:100EE00006D4204606F078FA0121206801F0E4FCDF
:100EF000206801F0D9FCC3013BD52568D5F8403402
:100F00000493D5F840340593059B23F02E030593F5
:100F1000049B9F0709D5049BD80702D5204606F0FD
:100F200057FA059B43F002030593049B190716D556
:100F3000059B43F008030593049B5A074DD5A1690F
:100F4000022942D1049B206803F4C023B3F5802F0B
:100F500018BF012101F0B0FC204606F045FA049BC1
:100F60009B0603D5059B43F020030593059BC5F81D
:100F70004034206801F098FC070705D5204606F0AC
:100F800023FA236808225A61206801F08DFC85014C
:100F900012D520684FF0000A01F0EBFD282706F576
:100FA000A0634FF0020802900193A3689A4518D3FA
:100FB00023684FF000725A61206801F075FCC30687
:100FC00000F1378207B0BDE8F08FE368012BC3D191
:100FD0004EF66022C5F80424BEE7204606F008FA63
:100FE000BDE70AF00F03029A22FA03F3D80740F193
:100FF0009480019B5FFA8AF520681B6813F4004F08
:1010000000F029814FEA451B00F5A0690BEB0906AA
:10101000B168490713D50421B160F16841F00201BC
:10102000F160B1688B054AD5F3682946206843F022
:101030000203F36001F0A2FD4FF40073E9E0B16830
:10104000CA0510D54FF480714FF0070EB16007FB51
:10105000054181F85DE0F16841F00201F160294647
:1010600001F08CFDDDE7B1688B0602D52021B1606F
:10107000D7E7B16809070ED5F1684FF0050E41F0CA
:101080000201F16007FB054181F85DE01021B160CC
:101090000821B160E3E7B1684A05C2D5F16841F0C3
:1010A0000201F160294601F069FD10210820B160BC
:1010B00007FB054181F85D004FF48061D7E7B16817
:1010C000C8074BD5216949B1306907FB054EC0F30C
:1010D0001200DEF84810091ACEF84C1007FB054143
:1010E0000123002281F85D308A65B36091F83F20CA
:1010F00012F0FD0F17D1F3682946206843F0020370
:10110000F36001F03BFD1023B36007FB054595F844
:10111000503083F0010385F85030019B0AF1010A39
:101120002033019341E7032A0DD15BF809001A46E9
:1011300040F000504BF8090081F85C302946204609
:1011400006F04EF9E1E7012ADFD191F8503081F83D
:101150005C2083F0010381F85030EFE7B168890724
:1011600042D5F16807FB054021F00201F16090F8DB
:101170005D1001290CD180F85C1007FB054329465E
:10118000C6F80880204693F85C2006F029F9C4E7E9
:101190000529F0D0062901D0082917D107FB054100
:1011A000886D01300328886585BF0023042081F8FD
:1011B0005C808B6588BF81F85C005BF8091021F0CA
:1011C000804141F000414BF80910D6E7032902D1D4
:1011D00080F85C80F1E70729CFD1836D0133836507
:1011E000042380F85C30C8E7B16811F0800112D0A8
:1011F000F3682946206843F00203F36007FB0543C8
:101200009A6D01329A65062283F85D2001F0B6FCE2
:101210008023B36081E7B368DA067FF57EAF07FB12
:10122000054292F83F30032B0AD19165F3682946B5
:10123000206843F00203F36001F0A0FC1023E8E70C
:1012400013F0FD03FAD193652369002BF6D1032334
:1012500082F85D30EAE7690100F5A0628E18B36894
:1012600013F0040E06D00423B360F36843F00203C6
:10127000F36052E7B36813F0200314D02023B36067
:1012800007FB054393F83D20012A7FF446AF83F81E
:101290003DE0294683F85C80F36843F00203F36085
:1012A00001F06CFC39E7D6F808E01EF0400F11D0D1
:1012B00007FB0542042182F85D100121936582F845
:1012C0003D102946F36843F00203F36001F056FC39
:1012D00040239EE7B36813F4007E05D0F3682946E7
:1012E00043F00203F360A5E6B368DB0711D5F268AB
:1012F00007FB0543294642F00202C3F858E0039376
:10130000F26001F03BFC0122039BB26083F85D2098
:1013100003E7B3681B070ED50823294607FB0545DD
:10132000B360F36843F00203F36001F027FC052388
:1013300085F85D30F1E6B368DB0615D507FB05439C
:1013400000229A65032283F85D2093F83D202AB994
:1013500093F83C2012B9012283F83D20F368294616
:1013600043F00203F36067E7B3681B060CD5F3682C
:10137000294607FB054543F00203F36001F0FEFB3D
:10138000062385F85D3043E7B3685B050FD5F36846
:10139000294607FB054543F00203F36001F0EEFB2D
:1013A0001023B3604FF48063B3600823C0E7B368D1
:1013B00098077FF5B2AEF36807FB054023F0020300
:1013C000F36090F85D30012B0ED180F85C3090F81E
:1013D0003F30023B012B3FF6D0AE90F8513083F006
:1013E000010380F85130C8E6032B02D180F85C80FD
:1013F000C3E6042BFAD0052B3FF4F3AE062B02D044
:10140000082B7FF4BAAE07FB0540836D0133032B35
:10141000836589BF002380F85C808365042388BFCF
:1014200080F85C308B5823F0804343F000438B50AE
:10143000A3E62668B36923F01003B361356AC5F3E8
:101440004342022A29D1C5F30A18B8F1000F24D06B
:1014500005F00F05282707FB0547796CE9B14246DF
:10146000304601F013FA7B6C06F5A06643447B64BA
:10147000FB6C4344FB646B019A1911690A4A0A40E8
:101480005AB19A5922F0804242F000429A5197F89C
:10149000503083F0010387F850302268936943F09D
:1014A000100393618EE500BF0000F81F38B590F877
:1014B000B8320446012B0DD0012580F8B8520068DF
:1014C00001F08BF92946206801F031FA002084F8F8
:1014D000B80238BD022038BD90F8B832012B10B5E3
:1014E000044609D0012380F8B832006801F05CFCA2
:1014F000002084F8B80210BD022010BD006801F081
:10150000F8B9282303FB010191F85C0070470068DB
:1015100001F0A1BA006801F093BAD2014FF0000CBB
:101520002DE9F043843204684F68A318E568D1F8C8
:1015300000E05868C5F30B450EF10106D1F818908C
:1015400000F470403D445860E068C0F30B40304404
:1015500040EA0540CD685860E068C0F30A000544E1
:10156000986800F4704098608868E6680130C6F3B7
:101570000A0630440E6940EA05409860186920F078
:10158000070018611E619D6991F8320091F8318061
:10159000C3F818C091F8305045EA096545EA0825B6
:1015A00045EA00459D61586920F0FF00586148698F
:1015B0005861D86920F4E06020F00700D861086A1B
:1015C000CD690543DD61986A486AC3F828C098620E
:1015D0001EB3012E23D0B01E022822D9072E0CBF25
:1015E00002200120DD6AA7EB0E0705F0E025DD6291
:1015F0008D6AC96A45437843033040EA0540D862A2
:10160000186B20F4FF6020F0070018631963A358DB
:1016100043F00103A350BDE8F0830420E2E7032078
:10162000E0E70220DEE7000038B50446002863D07A
:1016300090F8A13003F0FF021BB980F8A02004F05D
:101640001BFF0223A06884F8A13023689A6922F066
:1016500070429A61626899690243E06802432069B6
:10166000024360690A4325499A619A680A409A6070
:101670009A6842EA0042A0690243E0699A60DA6827
:101680000A40DA60DA6842EA0042206A0243606A8D
:10169000DA601A690A401A611A6942EA0042A06ACD
:1016A00002431A615A6911405961E16A5A6942EA72
:1016B0000142216B0A435A61D96A94F8360001F05D
:1016C0007F4194F83550D962D96A94F834200A439E
:1016D00042EA052242EA00420020DA625A6B42F0F6
:1016E00006025A639A6942F001029A610123C4F822
:1016F000A40084F8A13038BD012038BD00F800F006
:10170000F8B590F8A03006468E469446012B4FF06F
:1017100002001DD034240D4686F8A100012704FBE9
:10172000026486F8A07038340FCD0FC40FCD0FC4FB
:101730000FCD0FC42B683046624671462360FFF719
:10174000ECFE336800205F6286F8A17086F8A00086
:10175000F8BD90F8A030012B4FF0020370B504469D
:1017600015D080F8A13034230125534380F8A050D0
:10177000C618F16503F138010144FFF7CEFE236876
:1017800000205D6284F8A15084F8A00070BD184666
:1017900070BD90F8A030012B4FF002030DD080F8FF
:1017A000A13003685A6B42F008025A635962012360
:1017B00080F8A130002380F8A03018467047000060
:1017C000194B37B51A6C194C42F080521A641B6CD5
:1017D00003F080530193019B236843F4803323601B
:1017E000FEF72AFF05466368DA030CD5236843F445
:1017F00000332360FEF720FF0C4C054663689B0313
:101800000AD5002006E0FEF717FF401BB0F57A7FEF
:10181000E9D9032003B030BDFEF70EFF401BB0F541
:101820007A7FEBD9F5E700BF003802400070004036
:101830002DE9F341044608B901203FE00368D807C9
:1018400010D42368990760D42368190700F1A58094
:1018500023685A0700F1C680A069002840F0308153
:1018600000202BE0944B9A6802F00C02042A07D067
:101870009A6802F00C02082A0AD15B685A0207D55E
:101880008D4B1B689B03DCD56368002BD9D1D3E754
:101890006368894DB3F5803F13D12B6843F48033DF
:1018A0002B60FEF7C9FE844D06462B689F03C8D403
:1018B000FEF7C2FE801B6428F7D9032002B0BDE802
:1018C000F0819BB92B6823F480332B602B6823F4C1
:1018D00080232B60FEF7B0FE06462B689803B0D538
:1018E000FEF7AAFE801B6428F7D9E6E7B3F5A02F20
:1018F0002B6803D143F480232B60CEE723F480339D
:101900002B602B6823F48023CAE76B4B9A6812F094
:101910000C0F07D09A6802F00C02082A11D15B68FC
:1019200059020ED4644B1A68920702D5E268012A64
:1019300082D11A68216922F0F80242EAC1021A60D3
:1019400082E7E3685C4DBBB12B6843F001032B6079
:10195000FEF772FE06462B689F0707D52B682269A3
:1019600023F0F80343EAC2032B606DE7FEF764FE41
:10197000801B0228EFD9A0E72B6823F001032B601E
:10198000FEF75AFE06462B6898077FF55DAFFEF717
:1019900053FE801B0228F6D98FE76369464D83B159
:1019A0006B6F43F001036B67FEF746FE06466B6FF5
:1019B0009B073FF54DAFFEF73FFE801B0228F6D98F
:1019C0007BE76B6F23F001036B67FEF735FE06467E
:1019D0006B6F9F077FF53CAFFEF72EFE801B022842
:1019E000F6D96AE7344B1A6CD00027D41A6C01265A
:1019F00042F080521A641B6C03F080530193019BE8
:101A00002E4D2B68D9051BD5A3682B4D012B27D153
:101A10002B6F43F001032B6741F28835FEF70CFE74
:101A2000254F80463B6F9B073FD5002E3FF414AFF8
:101A3000214A136C23F0805313640DE70026DFE77F
:101A40002B6843F480732B60FEF7F6FD07462B6886
:101A5000DA05D9D4FEF7F0FDC01B6428F7D92CE7CE
:101A6000ABB92B6F41F2883823F001032B672B6F42
:101A700023F004032B67FEF7DFFD07462B6F980763
:101A8000D3D5FEF7D9FDC01B4045F7D915E7052B87
:101A90002B6F03D143F004032B67B9E723F0010355
:101AA0002B672B6F23F00403B5E7FEF7C5FDA0EB12
:101AB0000800A842B6D900E7003802400070004094
:101AC000384DAB6803F00C03082B41D02B6802287B
:101AD00023F080732B602ED1FEF7AEFD06462B68F7
:101AE000990122D4226AE3691343626A43F00053E6
:101AF00043EA8213E26A43EA0263A26A294C52086B
:101B0000013A43EA02436B602B6843F080732B6019
:101B1000FEF792FD054623689A013FF5A1AEFEF758
:101B20008BFD401B0228F6D9C7E6FEF785FD801B1A
:101B30000228D4D9C1E6FEF77FFD04462B689B013D
:101B40007FF58EAEFEF778FD001B0228F6D9B4E6CD
:101B500001286B683FF4B2AE03F48002E1698A4267
:101B60007FF46AAE03F03F02216A8A427FF464AEDA
:101B700047F6C072616A1A40B2EB811F7FF45CAE17
:101B8000A26A03F440315208013AB1EB024F7FF4EC
:101B900053AEE26A03F07063B3EB026F14BF01202F
:101BA00000208BE600380240134908B58B6803F02B
:101BB0000C03042B03D0082B03D0104808BD104899
:101BC00008BD4A684B68496802F03F0213F480037D
:101BD000C1F388111ABF0A4800230848A1FB00017D
:101BE000FEF766FB044B5B68C3F3014301335B0004
:101BF000B0FBF3F008BD00BF003802400024F40041
:101C000040787D012DE9F0410D46044610B90120D0
:101C1000BDE8F081464A136803F00F038B4229D3D5
:101C200021688F0731D4C80744D4414A136803F0B0
:101C30000F039D4268D32268510771D4130707D55B
:101C40003C4A2169936823F4604343EAC1039360EB
:101C5000FFF7AAFF374B384A9B68C3F30313D35CE3
:101C6000D840364B1860364B1868FEF7A9FC0020A8
:101C7000BDE8F081136823F00F030B431360136872
:101C800003F00F039942C2D1CAE711F0040F294BA8
:101C900003D09A6842F4E0529A600E0703D59A681E
:101CA00042F460429A609A68A06822F0F00202430F
:101CB0009A60B8E761681F4B01291A681CD112F4B9
:101CC000003FA4D09A6841F288381A4E22F00302ED
:101CD0000A439A60FEF7B0FC0746B368626803F0F7
:101CE0000C03B3EB820FA0D0FEF7A6FCC01B40454F
:101CF000F3D90320BDE8F081022902D112F0007F60
:101D0000DFE712F0020FDCE7136823F00F032B4329
:101D10001360136803F00F039D427FF478AF8AE7E6
:101D20000449E0688B6823F4E05303438B6085E744
:101D3000003C024000380240FA8E000850000020AB
:101D4000040000202DE9F7430268044612F0010662
:101D50000BD0B84B996821F400019960466B9968E3
:101D60003143B6FA86F67609996012F4002512D04E
:101D7000B049E56BD1F88C30B5F5801F23F44013E2
:101D800008BF012643EA050316BFB5FA85F500250D
:101D90006D09C1F88C30D10210D5A648216CD0F85D
:101DA0008C30B1F5800F23F4400343EA0103C0F8FF
:101DB0008C3000F08581002908BF012512F0807F5A
:101DC00018BF0126920631D59A4B9B4F1A6C42F0F0
:101DD00080521A641B6C03F080530193019B3B6893
:101DE00043F480733B60FEF727FC80463B68DB05CD
:101DF00040F168818F4F3B6F13F4407340F06D8169
:101E0000236B03F44072B2F5407F8A4A40F08B8125
:101E1000916823F0704021F4F81120F440700143E0
:101E20009160C3F30B03116F0B4313672368DA064A
:101E30000CD5804AD2F88C1021F08071C2F88C1039
:101E4000D2F88C10A06B0143C2F88C105F0408D547
:101E50007849606ED1F8902022F440320243C1F8F4
:101E60009020180408D57349A06ED1F8902022F470
:101E700040220243C1F89020D90308D56D49E06E95
:101E8000D1F8902022F440120243C1F890209A0326
:101E900008D56849206FD1F8902022F4400202430F
:101EA000C1F890205F0608D56249606CD1F8902097
:101EB00022F003020243C1F89020180608D55D49BC
:101EC000A06CD1F8902022F00C020243C1F89020BF
:101ED000D90508D55749E06CD1F8902022F030029E
:101EE0000243C1F890209A0508D55249206DD1F8D7
:101EF000902022F0C0020243C1F890205F0508D56F
:101F00004C49606DD1F8902022F440720243C1F830
:101F10009020180508D54749A06DD1F8902022F4EB
:101F200040620243C1F89020D90408D54149E06DD0
:101F3000D1F8902022F440520243C1F890209A0434
:101F400008D53C49206ED1F8902022F4404202434B
:101F5000C1F890205F0208D53649A06FD1F89020D3
:101F600022F080620243C1F8902098020CD53148DB
:101F7000E16FD0F89020B1F1006F22F0006208BF4D
:101F800001250A43C0F8902013F0080F18BF01255F
:101F9000590308D52749606FD1F8902022F040728C
:101FA0000243C1F890201A0209D52249D4F88000D2
:101FB000D1F8902022F080520243C1F89020012EE7
:101FC00000F0B580B3F1007F00F0B180012D75D134
:101FD000184D2B6823F080532B60FEF72DFB06462F
:101FE0002B689F0000F1278121680E0301D5E36B68
:101FF0001BB1CD0222D5236C03BB0E4AD2F8883028
:10200000D2F8880003F4403300F0E04003436069F5
:1020100043EA8013A06943EA0063C2F88830D2F82B
:102020008C30A06A23F4F853013843EA0023C2F845
:102030008C3003E00038024000700040880215D563
:10204000E36FB3F1006F11D1824AD2F88830D2F831
:10205000880003F0706300F0E0400343606943EAE6
:102060008013206A43EA0043C2F888300A0719D572
:102070007849D1F88820D1F8883002F0706203F4F2
:1020800040331343626943EA8213E26943EA02730D
:10209000C1F88830D1F88C30E26A23F4403313431E
:1020A000C1F88C306B4C236843F080532360FEF7FB
:1020B000C3FA054623689B0040F1C480002009E074
:1020C00001267BE6FEF7B8FAA0EB080064287FF64D
:1020D0008DAE032003B0BDE8F083226B02F44072A2
:1020E00093423FF48DAE3B6F3A6F23F4407342F45A
:1020F00080323A673A6F22F480323A673B673B6F2F
:10210000D8077FF57DAEFEF797FA41F28839804611
:102110003B6F99073FF574AEFEF78EFAA0EB08000F
:102120004845F5D9D5E7916821F4F81178E6494E8C
:10213000336823F080633360FEF77EFA0746336826
:102140001B0172D42268D70712D5636B83B9D6F806
:102150008430D6F8841003F4403301F070610B43EF
:10216000616843EA8113A16843EA0173C6F88430C9
:10217000160303D5E36BB3F5801F05D0D0021ED53F
:10218000236CB3F5800F1AD13249D1F88430D1F8DD
:10219000840003F4403300F0E0400343606843EA06
:1021A0008013E06843EA0063C1F88430D1F88C0002
:1021B000636A20F01F00013B0343C1F88C30D1015A
:1021C00011D52449D1F88430D1F8840003F070632C
:1021D00000F0E0400343606843EA8013206943EA6B
:1021E0000043C1F8843092010DD5236962681B0455
:1021F00043EA8213E26843EA0263A26843EA027395
:10220000144AC2F88430134E336843F0806333605D
:10221000FEF712FA074633681B013FF5D7AEFEF70B
:102220000BFAC01B6428F6D953E7FEF705FAC01B6A
:10223000642884D94DE7FEF7FFF9801B64287FF6F8
:10224000CFAE46E7FEF7F8F9401B64287FF632AFC1
:102250003FE700BF0038024010B5044690B1437913
:1022600003F0FF0213B9027104F07CF92268022323
:1022700000206371136843F004031360012363714A
:10228000A06010BD012010BDF8B5037904460E46CC
:10229000012B25D001206379834220711DD10223B7
:1022A0006371FEF7C9F907462268556815F0010504
:1022B00008D093680020E36033600123637100233A
:1022C0002371F8BDFEF7B8F9C01B0228ECD9012034
:1022D000022325716071A360F8BD0423A360EEE7BB
:1022E0000220F8BD10B500F10C010446FFF7CCFF49
:1022F00008B9E06810BD002010BD38B50D46044691
:10230000C8B190F82C3003F0FF021BB980F82D20E3
:1023100004F052F90223211D206884F82C3000F0CB
:1023200069F962682946206800F0A3F901230020BA
:1023300084F82C3038BD012038BD38B5044690F8FB
:102340002C000D46C0B202280DD00223206884F86C
:102350002C3000F0D6F92B680020022B0CBF05238F
:10236000012384F82C3038BD10B5044690F82C00B9
:10237000C0B2022809D00223206884F82C3000F073
:10238000D3F90123002084F82C3010BD0368DA68EB
:1023900042F00102DA60074A99680A40062A06D02C
:1023A000B2F5803F03D01A6842F001021A600020A3
:1023B000704700BF07000100304A0368904212D006
:1023C000B0F1804F0FD0A2F57C4290420BD002F5C5
:1023D0008062904207D002F58062904203D002F5FD
:1023E0007842904219D14A6823F070031343234A7C
:1023F000904229D0B0F1804F26D0A2F57C42904285
:1024000022D002F5806290421ED002F58062904296
:102410001AD002F57842904216D0194A904213D051
:1024200002F5806290420FD002F5806290420BD09C
:10243000A2F59832904207D002F58062904203D014
:1024400002F58062904203D123F44073CA681343BB
:102450004A6923F08003134303608B68C3620B68EF
:102460008362064B984203D003F58063984201D102
:102470000B69036301234361704700BF0000014003
:102480000040014010B50446A0B190F83D3003F083
:10249000FF021BB980F83C2004F07AF80223206880
:1024A000211D84F83D30FFF787FF0123002084F8C9
:1024B0003D3010BD012010BD10B50A43846842EACA
:1024C000032324F47F442343836010BD90F83C3001
:1024D000012B70B504464FF0020017D084F83D0080
:1024E0000123206884F83C308268414B13408360AC
:1024F0000B68402B65D015D8102B0CD007D853B1E2
:102500000123002084F83D3084F83C0070BD202B6E
:1025100001D0302BF4D1826843F0070322F070021F
:1025200013431AE0602B34D019D8502BE8D14A68F5
:10253000CE68016A056A21F00A0125F001050A4307
:102540000562836923F0F00343EA061383610262A4
:10255000836823F0700343F057038360D0E7702B48
:102560000CD0B3F5005FCBD1CB684A688968FFF720
:10257000A3FF2268936843F4804308E0CB684A686D
:102580008968FFF799FF2268936843F077039360A7
:10259000B6E74D68CE68016A21F0100101628269D8
:1025A000036A22F4704223F0A00342EA063243EAAF
:1025B000051382610362836823F0700343F06703AD
:1025C000CBE74A68CE68016A056A21F00A0125F066
:1025D00001050A430562836923F0F00343EA061309
:1025E00083610262836823F0700343F04703B4E71A
:1025F0008800FEFF0B684A68012BD1F810C0036801
:102600002DE9F043D1F80890D1F80C804D698C6920
:10261000D1F81CE00F6A4E6A14D023F4FF4323F074
:102620007F031A4342EA090242EA080242EA0C0323
:102630002B43234343EA0E033B4333430360002011
:10264000BDE8F083416823F4F84321F4FF4143EAF5
:102650000E0321F07F013B430A431E4342EA090275
:10266000066042EA080242EA0C032B43234343601C
:10267000E5E7012AD1F80CC0F0B591E808408F6871
:102680000D694E6989691BD082680EF1FF3E013BDE
:102690000CF1FF3C02F07042013D013E013942EA7B
:1026A0000E121A437B1E42EA032343EA0C3343EA29
:1026B000054343EA065343EA016383600020F0BD0B
:1026C00084680EF1FF3EC268013B24F470040CF1F3
:1026D000FF3C02F07042013E24F47044013942EAAA
:1026E0000E1244EA0C341A437B1E44EA065642EAB0
:1026F00003226B1E866042EA034343EA0163C36020
:10270000DCE791E80C0013B51343CA6804460020C7
:1027100043EA42238A680190013A43EA4213019353
:10272000019B236102B010BD436943EA410141614D
:10273000002070470A4B013B01D10320704702691A
:10274000002AF8DA0369064A43F001030361013AFB
:10275000F3D0036913F00103F9D11846704700BFA5
:10276000410D030084B038B505AD044685E80E0080
:102770000A9B012B26D1836B23F480338363C368C8
:1027800023F4840323F04003C360C36823F440139D
:10279000C360119B012B03D1C36843F48013C36052
:1027A0002046FFF7C7FF089B012B07D1A36843F022
:1027B0000603A360A36843F02003A360BDE838408C
:1027C00004B07047C36843F04003C360FFF7B2FF33
:1027D000A36B43F48033A363E5E7836843F001030D
:1027E000836000207047836823F00103836000202A
:1027F000704708B5C368012923F0C043C36008D1FE
:10280000C36843F00053C3603220FDF71BFF002074
:1028100008BD19B9C36843F08043F4E7012008BD3F
:102820008901074A41F020010161013A05D003699D
:1028300013F02003F9D1184670470320704700BFFA
:10284000410D03001023064A0361013A05D00369D4
:1028500013F01003F9D1184670470320704700BFEA
:10286000410D030010B59DF808404CB9033300EB4F
:10287000023023F0030300F580500B44994201D14C
:10288000002010BD51F8042B0260F7E7033200F579
:10289000805022F003020A44914201D10846704759
:1028A000036841F8043BF7E74269806910407047CC
:1028B000406900F001007047D0F80034012900F5AC
:1028C000806223F0030310B5C0F8003401F0030365
:1028D000D0F8004443EA0403C0F8003404D14BF6B6
:1028E00080335360002010BD0229FBD141F2707388
:1028F000F7E737B5002504460195D0F84034019339
:10290000019B23F02E030193019B43F48073C0F8D5
:1029100040346420FDF796FE019B0A2023F4807367
:10292000C4F84034FDF78EFE284603B030BD82B0B7
:1029300000230193D0F840340193019B23F02E0330
:102940000193019BDA0406D4012904D1019B43F4CD
:102950008053C0F84034019BDB0405D521B9019BAD
:1029600023F48053C0F84034002002B070470000C8
:1029700084B038B5044605A880E80E000023C4F8EA
:10298000003EA36B23F40013A363E36BDA053FD58A
:10299000079B012BD4F800343CD143F00403C4F866
:1029A000003410212046FFF73BFF2046FFF74AFF87
:1029B0000023069904F5A0624FF0FF301D468B42BC
:1029C0002BD101212046FFF7B2FFC820FDF73AFEC8
:1029D0000023A3614FF0FF336361E36BDB0521D577
:1029E0004FF40073636203F18073A362114BC4F868
:1029F0000031089B1BB9A36943F01003A361A269CE
:102A000000200D4B1343A361BDE8384004B070476C
:102A1000D4F8003423F00403C1E790600133D5609B
:102A20002032CCE78023636203F5C003A362034B2B
:102A3000DDE700BF0003E000080020A3E000400045
:102A400082B000230193D0F8403401930198C0F381
:102A5000414002B0704700F58060806880B27047E6
:102A60002DE9F04100EB411705469DF81C604FF041
:102A7000FF3007F5A0644FFA82F8A06005F5806C7E
:102A800001F00F0E032E70D8DFE806F00265025049
:102A900040F29D41B8F1000FE16003DAE16841F4D2
:102AA000807105E0E96BC90546D5E16841F0600138
:102AB0000020E1600121DCF81840B8F1000F01FAB4
:102AC0000EF141EA0401B4BF4FF400440024CCF8F5
:102AD0001810A96941F00071A9619B05BDF820504B
:102AE000D2029DF8181003F0FE53C5F30A0502F454
:102AF000F042022943EA05030CBF4FF400310021E4
:102B00001343B204032E02F4402243EA020343EAD1
:102B1000040343EA0103C7F8003528D1D7F800358C
:102B200043F00053C7F80035BDE8F08140F29D61E5
:102B3000B8F1000FE160B1DB0121DCF8180001FA07
:102B40000EF101430020CCF818100446A96941F0A9
:102B50000071A961C1E740F22521B8F1000FE160E1
:102B6000EADAE16841F4C071A2E70120A2E7BDE81A
:102B7000F08100F58060406980B2704700EB411140
:102B8000D1F8003501F5A06213F4802FD1F800359B
:102B900043F08043C1F800351ED1C36A13F47F0FA0
:102BA000D1F8003537D123F00043C1F80035D1F812
:102BB000003543F00043C1F80035D1F8003523F467
:102BC0000043C1F8003540F2E933013B02D01168FF
:102BD0000029FADB00207047D0F8103413F47F0F7F
:102BE000D1F8003517D123F00043C1F80035D1F8F2
:102BF000003543F00043C1F80035D1F8003523F427
:102C00000043C1F8003540F2E933013BE2D01168DE
:102C10000029FADBDEE743F00043C1F80035D9E7CD
:102C200000EB4111064A0020C1F81025D1F800350B
:102C300023F0804343F00043C1F80035704700BFE4
:102C400000000880C36BDB052DE9F34116460446FE
:102C50004A7817D50D79ADB94EB94B79012B11D101
:102C60001146FFF7DDFF002002B0BDE8F081012E24
:102C700008D100EB4213D3F80C0520F06000C3F834
:102C80000C054D710869002866D00B89013818447D
:102C9000B0FBF3F080B2B0F5807F03D91B024FF494
:102CA00080700B61CF7817B10B8943430B6191F8AA
:102CB0000AE004EB42150B694FEA4E7EC3F312089B
:102CC0000EF0C04E4EEA080EDFF8D88008EAC04089
:102CD0004EEA0000C5F8100516B1C868C5F814051D
:102CE00004F5806EDEF80800D5F800C5C0432CF06E
:102CF000005C4007C5F800C500F00050D5F800C5DD
:102D000040EA0C00C5F800052548D5F800C5C0F814
:102D100000C0D0F800C02CF0804CC0F800C0D0F843
:102D200000C0DFB14CF4004CC0F800C0D0F800C0C7
:102D30004CF0004CC0F800C00068C5F80005002E3B
:102D400091D1002F8FD1002B8DD0C879032813D8B3
:102D5000DFE800F0071A071A0120A3E72CF4004C63
:102D6000E2E7E06ADD1C80B2C5F38F05854203D936
:102D7000A06940F02000A06100209BB20090204696
:102D8000C968FFF76FFD6EE7DEF81000DD1C80B24A
:102D9000C5F38F058542EFD9A06940F08060EAE76E
:102DA0008C0200200000F81F8368102123F001032B
:102DB00010B504468360FFF733FD2046FFF742FD60
:102DC00004F5A06304F5E0601A46116821F0802143
:102DD00041F0804142F8201B9042F6D10020196852
:102DE00021F4004141F0404119600130B0F57A7F93
:102DF00002D819680029F8DB20339A42EFD14FF04E
:102E0000FF330020C4F814346361A36843F0010366
:102E1000A36010BD00207047D0F83C3770B5DD6965
:102E200006462B78013B032B0DD8DFE803F0022C7C
:102E3000021A95F80E41012C0AD1002295F80C11C6
:102E400001F08CF908B1012070BD04232B70FAE762
:102E500003232B7000220221D6F8980701F074FAA0
:102E6000F1E795F80E41012C0BD195F80D2195F85D
:102E70000C1101F073F90028E5D102232B70AB701F
:102E8000E1E70423E5E7D0F89437022198470022D0
:102E90000421D6F8980701F057FA002070BD38B524
:102EA000D0F83C370446DD6995F80F1149B101F0BF
:102EB000B8F995F80F11204601F0D0F9002385F8F4
:102EC0000F31D4F83C37D86928B104F0C3FBD4F8EB
:102ED0003C370022DA61002038BD00007FB50023B6
:102EE00001220E21054600F065FBFF280DD1484860
:102EF00004F086FCD5F83C374648196804F080FC9D
:102F00000A2004F095FC02261BE0D5F83C674FF43C
:102F1000A47004F097FB4FF4A472F0610021044602
:102F200004F0BAFB284600F0DFF8022806460BD171
:102F3000D5F83C373848196804F062FC0A2004F0E0
:102F400077FC304604B070BD234604F13200002601
:102F5000997A012916D1DA88B24213D9B2F5806F75
:102F600010D25E7A84F80C611E7A84F80D611E79A5
:102F7000A4F80A2184F808619E8984F80E1184F867
:102F8000106116460A339842E2D1244804F038FC16
:102F90003146234804F1380604F032FC0A2004F0DC
:102FA00047FC284600F07AF9304600F0BBF91D4B8B
:102FB0001B680133A7D0304600F0FEF91A4B1B689E
:102FC0000133A0D094F80E61012E1BD194F80811A2
:102FD000284601F02BF9014684F80F014FF47A706E
:102FE00094F80821029095F81D0595F81C3500907D
:102FF0002846019601F006F9002294F80F112846A0
:1030000004F0A4FA012300262370637099E700BF3F
:10301000D0890008D8890008008A0008268A00089C
:103020002F8A0008280000202C0000200020704774
:10303000B1F5807F70B504460E460FD1134D2422A2
:103040000021284604F028FB01232B80104B1B682D
:10305000AB70104B1B68EB700F4B6B602123012290
:103060000A4D2374D4F83C37DB696274668293F8A6
:103070000C31A3821A23E3821A222946204600F04B
:1030800037FE0128F8D0002070BD00BF344000207A
:10309000280000202C0000201516050038B5242239
:1030A00004460D460F48002104F0F6FAA1238122C0
:1030B0002374D4F83C37DB696274658293F80C3171
:1030C000A3821A23E3821A220649204600F010FE4A
:1030D0000128F8D020B9034B5B69002B08BF022000
:1030E00038BD00BF34400020D0F83C37F0B5DD6972
:1030F00000F5FA7600230A274FF0010E90F84725D5
:103100000E2A1FD190F84825022A1BD190F84E456F
:10311000220617D5B0F85015A1B103EB830205EBD9
:1031200042021471D18090F84415517290F84515FF
:10313000117207FB0351013390F85245DBB28C81C9
:1031400082F80AE03230B042D8D1002B0CBF022006
:103150000020F0BD012970B5044625D19378013BCC
:10316000032B04D8DFE803F002050E1702600020ED
:1031700070BDB0F8C230591C00EB8304A0F8C21037
:103180006260F4E7B0F8C430591C00EB8304A0F887
:10319000C410E262EBE7B0F8C630591C00EB8304C0
:1031A000A0F8C6106264E2E70229E0D19378013BFF
:1031B000062BDCD801A151F823F000BFD93100085B
:1031C0006F3100086F3100083D32000855320008A9
:1031D000EF3100080532000890F8C830022BC6D83D
:1031E000591C00EB830480F8C810E264BFE790F834
:1031F000C930022BBBD8591C00EB830480F8C910DE
:10320000A265B4E790F8CA30092BB0D800EB83036D
:103210001F485A66B2F80550B2F8076004F0F0FA99
:1032200029461C48324604F0EBFA0A2004F000FB61
:1032300094F8CA30013384F8CA3098E790F8CB305C
:10324000022B94D8591C00EB830480F8CB10C4F8EF
:103250008C208CE790F8CC30092B88D800EB8303C6
:103260000B48C3F89820B2F80550B2F8076004F094
:10327000C7FA29460848324604F0C2FA0A2004F088
:10328000D7FA94F8CC30013384F8CC306FE700BF24
:10329000268A0008508A00086E8A0008D0F83C3759
:1032A0002DE9F347DC690DF108080923064600F112
:1032B0001C074FF0320A28F8023D00233834A4F8E6
:1032C000C2301D46A4F8C4309946A4F8C030B6F800
:1032D0003A25BDF806309A4203D8002002B0BDE876
:1032E000F0873846414600F0FDFC43780746042B42
:1032F0000ED0242BEBD196F83C359D42E7DC0AFB3F
:1033000009630246204693F84815FFF723FFDEE7DE
:103310008178C27830464DB200F068F94FFA80F9F2
:10332000D5E7000038B54FF0FF331C4D04462B6045
:103330001B4B1B78A3B990F8C930012B0CD019484E
:1033400004F05EFA94F8C910174804F059FA0A20FC
:10335000BDE8384004F06CBA836DDB782B6038BD73
:10336000012BFCD190F8CB30012B06D00D4804F096
:1033700047FA94F8CB100D48E7E7D0F88C400422C8
:103380000B49601D04F06EF930B1064804F038FABC
:10339000084804F035FADAE7E378DFE72800002090
:1033A00030000020D0890008938A0008BE8A0008F7
:1033B000EA8A0008EF8A00084FF0FF331D49F0B594
:1033C0000B601D4B1B78C3B91C4A643090F86640F3
:1033D00015681B4A1668DAB2944200D8F0BD50F85E
:1033E000042BB2F80570AF4205D1B2F80770B742AE
:1033F00004BFD2780A600133EDE7012B0AD10F4BED
:10340000983090F834401D680D4B1E680023DAB2E6
:10341000A24200D3F0BD50F8042BB2F80570AF42C1
:1034200005D1B2F80770B74204BFD2780A60013301
:10343000EDE700BF2C000020300000203800002005
:103440003400002078B171B1074B084A1860084B6E
:103450001960084B1860084B196001231370074A64
:103460001370074A13707047940200209C020020DA
:103470009802002090020020A40200203C000020BE
:103480003D0000200122014B1A7070473D000020D2
:1034900000F2447300F5F062002143F8041B9342EC
:1034A000FBD100F58E7200F21C51002302F8013BA3
:1034B0009142FBD101224021037043708270C0F819
:1034C000843702768171437680F81C3580F81D259B
:1034D00080F81F3580F81E350020704770B50E4605
:1034E0008CB0054658B91F4804F08AF91E4804F00C
:1034F00087F90A2004F09CF902200CB070BD00246A
:1035000080F88C27C0F83C47C0F84047FFF7C0FF61
:1035100085F8204585F8234585F8214585F822451D
:103520000EB1C5F89467114C01AE94E80F00103449
:1035300086E80F000021304600F0F1FE05AEC5F828
:1035400098070FCC0FC694E8070086E807002946C5
:1035500005A800F0B4FEC5F89C07284603F04CFF10
:103560000020CAE7D0890008148B00088889000869
:1035700008B5A1B1D0F8403733B90122C0F83817E7
:10358000C0F84027184608BD074804F039F9074835
:1035900004F036F90A2004F04BF9022008BD024875
:1035A00004F02EF90248F3E7D08900086C8E000879
:1035B000858E000870B5002490F84765E5B28E420C
:1035C00001D0FF290BD190F84865964201D0FF2A1F
:1035D00005D190F849659E4206D0FF2B04D00134F6
:1035E00032300A2CE8D1FF25284670BD002330B5C3
:1035F00090F84455DCB28D4203D190F84555954280
:1036000004D0013332300A2BF2D1FF24204630BDE2
:1036100010B5044603F018FF0121204603F090FF87
:10362000002010BD70B5022386B004468DF8173017
:1036300090F82135012B01D10323037023780B2B44
:1036400000F29A82DFE813F00C002C005B009B0272
:103650009802910073020D02160227023A029202AA
:1036600094F82035002B00F087820125B94804F03A
:10367000C7F80A2004F0DCF8C820257003F075FFB5
:10368000204603F00BFF00222946C4F8A05784F817
:103690001C25C4F88827D4F8980700F055FE6BE283
:1036A00094F82335012B0CD1AB4804F0A9F80A207B
:1036B00004F0BEF8002384F81F3502232370012193
:1036C000CBE1D4F88837B3F57A7F11D994F81F3558
:1036D0000133DBB2032B84F81F3507D99F4804F070
:1036E0008FF80A2004F0A4F80D23E7E70023E5E7AC
:1036F0000A330A20C4F8883703F037FFDFE7D4F82D
:10370000943713B10421204698476420002503F024
:103710002CFF204603F0B4FE052384F81D0500218C
:103720002370204600F082FD80216071204600F069
:103730007DFDA279014620710292204694F81D2554
:1037400094F81C3500928022019500F05BFDA2796F
:1037500094F81C352046029294F81D256179009258
:103760002A46019500F04EFDA9E76378072B4ED855
:10377000DFE813F008007300A900D800DF000C0197
:10378000310151010821204600F0CFFB06460028F8
:103790003BD194F82D25012594F81C352179A2718F
:1037A00065700292204694F81D25019600928022B1
:1037B00000F028FDA27994F81C352046029294F876
:1037C0001D25617900923246019600F01BFD8DF8AF
:1037D00017509DF8173003F0FF05002B40F0CC8107
:1037E0005F4804F00DF80A2004F022F894F8373509
:1037F00084F82455012B40F02D815A4804F000F83C
:103800000A2004F015F8082325E1032801D001253A
:10381000DDE7554803F0F4FF544803F0F1FF0A20B8
:1038200004F006F894F81E350133DBB2032B84F85C
:103830001E3507D94E4803F0E3FF0A2003F0F8FFD6
:103840000D2308E06179204600F008FD217920462B
:1038500000F004FD00232370D9E71221204600F078
:1038600064FB90B9B4F83015424803F0C9FF0A2050
:1038700003F0DEFFB4F82E153F4803F0C1FF0A2025
:1038800003F0D6FF02236370C1E70328BFD1364897
:1038900003F0B6FF394803F0B3FF0A2003F0C8FF76
:1038A00094F81E350133DBB2032B84F81E35C1D8E2
:1038B0006179204600F0D2FC2179204600F0CEFC50
:1038C00000236370C7E70121204600F02BFC064669
:1038D00098B90125022003F048FE2948294684F8BA
:1038E0001C5503F08DFF0A2003F0A2FF032321796A
:1038F0006370A27994F81C3553E7032887D11A48DE
:1039000003F07EFF1F4803F07BFF0A2003F090FFC7
:10391000174803F075FF0A2003F08AFF0D23237078
:103920000023B0E70921204600F047FB48B90423F3
:10393000A9E7B4F83A15204600F03FFB08B9052383
:10394000A1E703287FF463AF074803F059FF0E484F
:10395000A1E700BF288B00083D8B0008588B0008AA
:10396000348D0008468D0008D0890008848B00083B
:10397000B88B0008F78B0008008C0008098C000841
:10398000428C00085A8C00088B8C000894F834553F
:10399000EDB104F58E76FF2329462046324600F02D
:1039A0009AFB88B931468A4803F02AFF0A2003F0BF
:1039B0003FFF0623052163700022D4F89807C4F85E
:1039C000A01700F0C1FC22E703287FF420AF814854
:1039D00003F016FFEAE794F83555A5B104F58E76A5
:1039E000FF2329462046324600F075FB40B9314698
:1039F000794803F005FF0A2003F01AFF072342E786
:103A000003287FF404AF754803F0FAFE0A2003F0A0
:103A10000FFF0723CEE794F8361599B104F58E769B
:103A2000FF232046324600F056FB054638B93146A2
:103A30006B4803F0E5FE0A2003F0FAFEC7E6032810
:103A40007FF4E5AE6748002503F0DAFE0A2003F0B4
:103A5000EFFEBCE6072323700521C4F8A01700225F
:103A600019E6D4F89437002B00F086800121204617
:103A70009847C8E694F83D15204600F061FB002801
:103A80007FF41DAE09235848237003F0B9FE0A20C5
:103A900003F0CEFE13E694F83F359B060CD50121CA
:103AA000204600F069FB00287FF409AE4F4803F080
:103AB000A7FE0A2003F0BCFE0A23FFE5D4F8403736
:103AC0001BB94B4803F09CFE29E0002394F84725DE
:103AD000C4F83C37D4F838371979914208BFC4F894
:103AE0003C37D4F83C37F3B19B6820469847D4F86C
:103AF0003C3770B9062219683E48227003F080FEF8
:103B00000A2003F095FED4F8943703212046984705
:103B1000A2E70D2219683848227003F071FE0A20CE
:103B200003F086FE98E70D2334482370CAE7D4F8E3
:103B30003C37A3B11B69204698478DF817009DF8C4
:103B400017300BB90B2386E79DF81730022B83D172
:103B50000D232B48237003F053FE2A48B2E70D23B0
:103B60002748237003F04CFE2748ABE7D4F83C37D6
:103B700013B15B6920469847002006B070BD002550
:103B8000204684F82155FFF783FCD4F83C3723B155
:103B9000DB6820469847C4F83C57D4F8943713B1F3
:103BA000052120469847194803F02AFE0A2003F011
:103BB0003FFE94F82235012B06D10023204684F8DD
:103BC0002235FFF725FD7AE5204603F03DFC76E53A
:103BD000CD8C0008DF8C0008F28C0008FF8C0008F8
:103BE0000D8D0008208D00086C8D0008878D000861
:103BF000A48D0008C28D0008D48D0008F48D000843
:103C0000D0890008198E00083E8E0008548E0008E6
:103C10001FB504464FF0FF32D4F8981701A800F002
:103C2000BBFB019B102BF5D12046FFF7FBFCF1E716
:103C3000C0F884177047D0F884270132C0F8842771
:103C400002780B2A04D1D0F83C370BB19B69184796
:103C500070470121002280F82315C0F8A017D0F882
:103C6000980700F071BB002380F82335704710B52A
:103C70000121002480F82015224680F82145C0F853
:103C8000A01780F82245D0F8980700F05DFB204689
:103C900010BD70B500250126044680F8216580F826
:103CA000235580F8205503F0DDFB2179204600F0F4
:103CB000D5FA6179204600F0D1FAC4F8A0672A4607
:103CC0003146D4F8980700F03FFB284670BD01212B
:103CD000002208B5C0F8A017D0F8980700F034FB10
:103CE000002008BD02780B88104413440B807047F5
:103CF00037B585780446012D03D0022D11D001255A
:103D00000CE002238160828105768370032100220A
:103D1000D4F89807C4F8A01700F016FB284603B0A3
:103D200030BD037E0121013B0A2B0ED8DFE803F0F2
:103D3000060F2F395661828CA5B0BA00427900F186
:103D4000100100F027FA022323760125DEE74179EE
:103D500003F0F2FB012814D1E28A94F9103062B129
:103D6000002B55DA032303212376C4F8A017002281
:103D7000D4F8980700F0E8FAE7E7002B3EDA0923C9
:103D8000F1E7042801D00228DFD10B23EBE7D0F8BC
:103D900084378289C3818168037900F023FA042380
:103DA000D2E7017903F0C8FB01284FF0030102D1EB
:103DB00009232376D9E705280CD10325C4F8A017D9
:103DC0000022D4F8980700F0BFFA0123A370002363
:103DD00023769BE70428B8D10B23EAE7437982894D
:103DE0000091816800F0E7F9D4F88437E381062375
:103DF000AAE7417903F0A0FB012801D10723B2E72C
:103E0000052803D10C2303212376D6E7022801D10C
:103E10000523A8E7042898D10B2303210022D4F816
:103E200098072376C4F8A01700F08EFA0123022524
:103E3000A3706BE700220379114600F0D3F9D4F8A0
:103E40008437E38108237FE7017903F075FB0128BC
:103E50000BD10D2303210022D4F8980723760025E7
:103E6000C4F8A01700F070FAAFE704284FF0030180
:103E7000B2D005287FF469AF9FE700224379009113
:103E8000114600F098F9D4F88437E3810A235BE700
:103E9000417903F051FB0128DBD002283FF46FAFDA
:103EA000042871E7437E0133DBB2022B437603D84B
:103EB00001230376837048E70025D0F89437062164
:103EC00098476576094803F09BFC094803F098FC85
:103ED0000A2003F0ADFC6179204600F0BFF921799A
:103EE000204600F0BBF92570A0E700BFD08900088C
:103EF000A68E000830B48478BDF80850012C0FD18C
:103F000061F07F0442820621C582047402F47F447A
:103F10004174B4F5407F0CBF40F209420022828216
:103F20002A46194630BCFFF7E3BE37B500F58E735D
:103F30000D4600914FF4807200210446FFF7DAFF2E
:103F4000C8BB94F81C31082D84F8263594F81D312F
:103F500084F82735B4F81E31A4F8283594F82031B8
:103F600084F82A3594F8213184F82B3594F82231DD
:103F700084F82C3594F8233184F82D351BD9B4F806
:103F80002431A4F82E35B4F82631A4F83035B4F82D
:103F90002831A4F8323594F82A3184F8343594F86D
:103FA0002B3184F8353594F82C3184F8363594F873
:103FB0002D3184F8373503B030BD2DE9F74300F1DA
:103FC0001C050E4600914FF400722B46002104465A
:103FD000FFF790FF48BB237F092EB4F81EE084F85A
:103FE0003835637FA4F83AE584F8393594F8203001
:103FF00084F83C3594F8213084F83D3594F822302B
:1040000084F83E3594F8233084F83F3594F8243012
:1040100084F8403509D927462B46064609224FF039
:10402000320C0A2E01D0964502D803B0BDE8F083C9
:1040300019780B440A44597892B20429F1D11978BD
:104040000CFB06F887F84215597887F843159978DC
:1040500087F84415D97887F84515197987F84615F2
:10406000597987F84715997987F84815D97987F8E4
:104070004915197A87F84A15002197F846558D4257
:1040800002D801363237CCE79645FAD91D782B4451
:104090002A445D7892B2052DEFD14D1C93F8009023
:1040A00008EBC501214481F8449593F8019081F80B
:1040B000459593F8029081F8469593F8039081F81E
:1040C0004795B3F80490A1F8489593F8069081F8C5
:1040D0004A95E9B2D1E7F7B500F58E7514461F464B
:1040E000009341F440722B4600210646FFF702FF81
:1040F00078B996F81D31032B0BD196F81C31024686
:10410000023BBB4228BF3B469BB2934203D80023ED
:10411000237003B0F0BDA9180232897892B204F876
:10412000011BF2E78378012B06D10023052241828F
:10413000037442748382C38200221146FFF7D8BD04
:104140008378012B06D10023092241820374427433
:104150008382C38200221146FFF7CABD8378012BF8
:1041600006D103740B234282437400238182C382ED
:1041700000221146FFF7BCBD8378012B06D1002336
:1041800003224182037442748382C3820022114657
:10419000FFF7AEBD30B5082385B000241546029365
:1041A00001912346039422460094294603F0AAF97C
:1041B000204605B030BD30B590F81D5585B01C4681
:1041C000002D9DF82030029218BF00230191214656
:1041D00003930123009300231A4603F093F9002070
:1041E00005B030BD30B585B000241D4602920122D5
:1041F0000191234603942946009203F083F9204657
:1042000005B030BD1FB5BDF8204002949DF81C409C
:1042100001949DF81840009403F04EF9002004B07A
:1042200010BD08B503F060F9002008BD00F244722B
:10423000002330B552F8045BDCB22D0408D400EB47
:10424000840041F40041A3B2C0F84417D8B230BD95
:1042500001330B2BEED14FF6FF73F7E70A299FBF0F
:1042600000EB8100D0F84437C3F30E03C0F84437A5
:10427000002070470F4B30B55D7A05F0FF04B5B9EB
:104280005D7A5C555D7A03EB85056860587A184461
:1042900002725A7AD2B2501C3032C0B258723A23EB
:1042A0000A7020464B702F23CC708B7030BD0120DC
:1042B00030BD00BFA80200200022FFF7DBBF70B5B1
:1042C000054646690B4686B0406829682A69B5F9F3
:1042D000084076B1AD6965B1842C029514BF0334F2
:1042E00000248DE8500000F07AFF0590059806B094
:1042F00070BD842C05AD92B214BF033400248DE848
:10430000300000F0A1FF0128F0D00020EFE70028E6
:1043100008BF012008B501F047F9002008BD07B526
:1043200082684AB1C3683BB10021009103C800F024
:1043300073FB03B05DF804FB002203C803B05DF813
:1043400004EB00F0BDBB00001FB5002401910394F5
:10435000A24208BF0122EFF30583ABB1234603AAB3
:1043600001A900F091FC012802D0FF2004B010BD8B
:10437000039B3BB14FF08052064B1A60BFF34F8F47
:10438000BFF36F8F0020F1E701A900F0BFFB012808
:10439000EBD1F7E704ED00E0F0B5002685B0044668
:1043A000174608460391029601AD11B98023019387
:1043B00016E00096EFF30583CBB16A4602A900F040
:1043C00077FD01280ABF102301960193009B3BB1A2
:1043D0004FF080520C4B1A60BFF34F8FBFF36F8FBB
:1043E00095E8070084E80700204605B0F0BD02A963
:1043F00000F0B4FC012801D11023D8E7002F0CBF36
:1044000000234023D3E700BF04ED00E000F10803E0
:104410004FF0FF324360C36003610023826003609A
:10442000704700230361704743689A684B608A6055
:104430009A685160996003680861013303607047AE
:104440000A68531C30B50AD103695A684A60916002
:104450008B605960036808610133036030BD00F16F
:1044600008035C682568AA42EFD32346F9E7416850
:10447000826803698A60826851605968884208BF0F
:104480005A60002202611A68013A1A60186870477F
:10449000002382B001930F4B1B6801330AD04FF009
:1044A000500372B683F31188BFF36F8FBFF34F8F42
:1044B00062B6FEE74FF0500372B683F31188BFF384
:1044C0006F8FBFF34F8F62B6019B002BFCD002B001
:1044D000704700BF400000204FF0807321F00101C1
:1044E00040F8202C44380364034BC16383636FF0AE
:1044F00002030362704700BF9144000800000000FF
:10450000074B19680868B0E8F04F80F30988BFF3DB
:104510006F8F4FF0000080F311887047AFF3008079
:10452000D43E00204FF0500372B683F31188BFF3DE
:104530006F8FBFF34F8F62B60B4A13680133012BA5
:1045400013600FD1094B1B6813F0FF0F0AD04FF017
:10455000500372B683F31188BFF36F8FBFF34F8F91
:1045600062B6FEE7704700BF4000002004ED00E0A7
:10457000094A136853B94FF0500372B683F3118898
:10458000BFF36F8FBFF34F8F62B6FEE7013B13603F
:104590000BB983F311887047400000200000000031
:1045A000EFF30980BFF36F8F154B1A681EF0100FE1
:1045B00008BF20ED108A20E9F04F10602DE90900B6
:1045C0004FF0500072B680F31188BFF34F8FBFF3E6
:1045D0006F8F62B601F00EF84FF0000080F3118883
:1045E00009BC19680868B0E8F04F1EF0100F08BF4A
:1045F000B0EC108A80F30988BFF36F8F704700BF5B
:10460000D43E002008B54FF0500372B683F31188F2
:10461000BFF36F8FBFF34F8F62B600F0B7FE18B1D4
:104620004FF08052024B1A60002383F3118808BDBB
:1046300004ED00E0EFF305830F2B10D9124A9B5CC9
:10464000124A12789A420AD94FF0500372B683F395
:104650001188BFF36F8FBFF34F8F62B6FEE70C4B2D
:104660000C4A1B68126803F4E06393420AD94FF0C6
:10467000500372B683F31188BFF36F8FBFF34F8F70
:1046800062B6FEE7704700BFF0E300E0B40200202E
:104690000CED00E0B80200200F4B10B51A68824202
:1046A00018D35C681919884201BF41681846091976
:1046B0005960446801198A4207D1084909688A4249
:1046C0001FBF51681268091941609842026018BF03
:1046D000186010BD1346E1E7CC3E0020BC0200206C
:1046E0002DE9F041044600F049FE4049404D0B6879
:1046F0000BBB404A5607404E1BBFD01D02F57053FE
:104700004FF4705320F007001CBF02461B1A002014
:10471000134432607060083B23F007031860586050
:10472000981A0B601360354B50601860344B18605A
:104730004FF000432B602F68274216D1002C42D047
:1047400004F1080358071CBF23F00703083363B1C3
:104750002B4A16689046B34207D8274A15686868FE
:10476000834204D809688D4207D100242BE02C68CD
:10477000002CF7D02A462546F1E729681468116015
:10478000C21A102A11D9E81841070AD04FF0500375
:1047900072B683F31188BFF36F8FBFF34F8F62B68A
:1047A000FEE742606B60FFF777FF6B6808341349E0
:1047B000F61A1F4308680023C8F8006086426F603D
:1047C0002B6038BF0E6000F075FE63070AD04FF013
:1047D000500372B683F31188BFF36F8FBFF34F8F0F
:1047E00062B6FEE72046BDE8F08100BFBC020020B3
:1047F000C03E0020C0020020CC3E0020C83E002069
:10480000C43E002010B50446002832D0194A50F8A2
:10481000043C126813420AD14FF0500372B683F37E
:104820001188BFF36F8FBFF34F8F62B6FEE750F86A
:10483000081C51B14FF0500372B683F31188BFF3D7
:104840006F8FBFF34F8F62B6FEE723EA020340F893
:10485000043C00F093FD084A54F8043CA4F108001D
:1048600011680B441360FFF717FFBDE8104000F01C
:1048700021BE10BDC03E0020C43E002010B504463D
:10488000FFF750FEA46BFFF773FEB4FA84F0400903
:1048900010BD70B51546026C0446866B42B90568BA
:1048A0009DB9806800F0A4FFA5600136A66370BDC5
:1048B0006DB9406802F0E5FE6368226C1344A2689B
:1048C0009342636001D3236863600020EDE7C06812
:1048D00002F0D7FE236CE2685B4221681A448A42E8
:1048E000E2603EBFA2689B18E360022DEDD10EB1DD
:1048F000013EEAE73046D8E7034608461A6C10B492
:1049000062B1D9689C681144A142D9605DF8044B3A
:1049100024BF1968D960D96802F0B3BE5DF8044BB2
:10492000704770B50446FFF7FDFD94F8455004F15B
:1049300024066DB2002D14DCFF2304F1100684F868
:104940004530FFF715FEFFF7EDFD94F844506DB2CA
:10495000002D12DCFF2384F84430BDE87040FFF7DF
:1049600007BE636A002BE7D0304600F09BFE08B11B
:1049700000F028FF013D6DB2DCE72369002BE9D090
:10498000304600F08FFE08B100F01CFF013D6DB213
:10499000DEE7000038B50D46044650B94FF050032D
:1049A00072B683F31188BFF36F8FBFF34F8F62B678
:1049B000FEE7FFF7B7FD206CE36B226843436260BC
:1049C000D1181B1A1344A1600021E360FF23A163E7
:1049D00084F8443084F8453095B9236963B104F113
:1049E000100000F05FFE38B14FF08052094B1A60A2
:1049F000BFF34F8FBFF36F8FFFF7BAFD012038BDB4
:104A000004F11000FFF702FD04F12400FFF7FEFCA3
:104A1000F2E700BF04ED00E013B51C4650B94FF0BB
:104A2000500372B683F31188BFF36F8FBFF34F8FBC
:104A300062B6FEE753B94FF0500372B683F31188A4
:104A4000BFF36F8FBFF34F8F62B6FEE75AB109BB5A
:104A50004FF0500372B683F31188BFF36F8FBFF32B
:104A60004F8F62B6FEE7A9B14FF0500372B683F3E1
:104A70001188BFF36F8FBFF34F8F62B6FEE74FF021
:104A8000500372B683F31188BFF36F8FBFF34F8F5C
:104A900062B6FEE748230193019B482BEFD1002922
:104AA00008BF2246019B0123E0632164204684F86D
:104AB000463019462260FFF76DFF204602B010BD58
:104AC00070B50D46064650B94FF0500372B683F3E9
:104AD0001188BFF36F8FBFF34F8F62B6FEE7484375
:104AE0004830FFF7FDFD044650B1002380F8463002
:104AF00045B92060E663012125642046FFF74AFF9F
:104B0000204670BD00F148030360F3E72DE9FF473D
:104B1000894601921F46044650B94FF0500372B6C1
:104B200083F31188BFF36F8FBFF34F8F62B6FEE739
:104B3000002940F08C80036C002B00F088804FF03F
:104B4000500372B683F31188BFF36F8FBFF34F8F9B
:104B500062B6FEE7019E002E00F084804FF0500305
:104B600072B683F31188BFF36F8FBFF34F8F62B6B6
:104B7000FEE7019D1DB9FFF7FBFC002058E016B9C8
:104B800002A800F0D3FDFFF7F3FC00F0F7FBFFF7FE
:104B9000C9FC94F84430FF2B01D184F8448094F888
:104BA0004530FF2B01D184F84580FFF7E1FC01A9D6
:104BB00002A800F0C7FD002843D1FFF7B3FCA66BA5
:104BC000E56BFFF7D5FCAE4235D1019904F1100039
:104BD00000F04CFD2046FFF7A4FE00F06BFC38B956
:104BE0004FF08053CAF80030BFF34F8FBFF36F8F81
:104BF0000126FFF797FCA26BE36B9A4201D3022FC9
:104C0000B7D13A4649462046FFF743FE636A1BB1D7
:104C100004F1240000F046FD38B14FF08052194BEA
:104C20001A60BFF34F8FBFF36F8FFFF7A1FC012016
:104C300004B0BDE8F0872046FFF773FE00F03AFCB1
:104C4000D6E72046FFF76DFE00F034FC95E7022F13
:104C500002D1E36B012B0AD100F0BAFD00283FF42A
:104C600079AF00264FF00008DFF818A0C1E74FF039
:104C7000500372B683F31188BFF36F8FBFF34F8F6A
:104C800062B6FEE704ED00E02DE9F8438846914660
:104C90001F46044650B94FF0500372B683F3118893
:104CA000BFF36F8FBFF34F8F62B6FEE719BB036C84
:104CB0000BB34FF0500372B683F31188BFF36F8FBD
:104CC000BFF34F8F62B6FEE704F1240000F0EAFC68
:104CD000002836D0B9F1000F33D00120C9F8000008
:104CE00086F31188BDE8F88301356DB284F845502C
:104CF00027E00020F4E7022F02D1E36B012B22D141
:104D0000FFF798FCEFF311864FF0500372B683F370
:104D10001188BFF36F8FBFF34F8F62B6A26BE36B47
:104D20009A4201D3022FE4D194F845503A464146C5
:104D300020466DB2FFF7ADFD6B1CD5D1636A002B29
:104D4000C2D10120CCE74FF0500372B683F3118833
:104D5000BFF36F8FBFF34F8F62B6FEE72DE9F043CD
:104D600085B088460446019250B94FF0500372B6A0
:104D700083F31188BFF36F8FBFF34F8F62B6FEE7E7
:104D8000002940F08A80036C002B00F086804FF0F1
:104D9000500372B683F31188BFF36F8FBFF34F8F49
:104DA00062B6FEE7019E002E7CD04FF0500372B633
:104DB00083F31188BFF36F8FBFF34F8F62B6FEE7A7
:104DC000019D1DB9FFF7D4FB002052E016B902A8DF
:104DD00000F0ACFCFFF7CCFB00F0D0FAFFF7A2FB31
:104DE00094F84430FF2B01D184F8447094F8453096
:104DF000FF2B01D184F84570FFF7BAFB01A902A887
:104E000000F0A0FC00283DD12046FFF737FD98B305
:104E1000019904F1240000F029FC2046FFF781FDF0
:104E200000F048FB38B94FF08053C9F80030BFF3A9
:104E30004F8FBFF36F8F0126FFF774FBA56B002D1B
:104E4000BED0013D41462046FFF756FDA5632369CC
:104E500063B104F1100000F025FC38B14FF080522E
:104E6000124B1A60BFF34F8FBFF36F8FFFF780FBBA
:104E7000012005B0BDE8F0832046FFF752FD00F0A9
:104E800019FBD8E72046FFF74CFD00F013FB204646
:104E9000FFF7F4FC0028CED096E700F099FC00283C
:104EA00080D000260027DFF80490C5E704ED00E07D
:104EB0002DE9F84389469046054650B94FF0500316
:104EC00072B683F31188BFF36F8FBFF34F8F62B653
:104ED000FEE781BB036C73B34FF0500372B683F3EC
:104EE0001188BFF36F8FBFF34F8F62B6FEE795F85F
:104EF000446049462846013C76B2FFF7FDFCAC63AE
:104F0000731C13D12B690BB901200BE005F11000C4
:104F100000F0C8FB0028F7D0B8F1000FF4D0012052
:104F2000C8F8000087F31188BDE8F883013676B22F
:104F300085F84460E8E7FFF77DFBEFF311874FF05A
:104F4000500372B683F31188BFF36F8FBFF34F8F97
:104F500062B6AC6B002CCAD12046E3E72DE9F041E4
:104F60000646FFF7DFFA2D4B2D4C1A682D4F013204
:104F70001A602568002D45D126601B68012B1CD1C5
:104F800078191435FFF742FA8C2DF9D1DFF8C0807B
:104F9000254D4046FFF73AFA2846FFF737FA2348EF
:104FA000FFF734FA2248FFF731FA2248FFF72EFACA
:104FB000214BC3F80080214B1D60214A2149136811
:104FC0000868013313600123F26A934003431420FD
:104FD0000B60311D00FB0270FFF726FAFFF7C8FADD
:104FE000194B1B6863B12368DA6AF36A9A4207D2E5
:104FF0004FF08052154B1A60BFF34F8FBFF36F8F86
:10500000BDE8F081104B1B68002BD6D12368DA6A0B
:10501000F36A9A42D1D82660CFE700BF6C3F0020E8
:10502000D43E0020E03E0020983F0020B43F002006
:10503000E03F0020CC3F0020D83E0020DC3E002096
:105040007C3F0020803F0020C83F002004ED00E0AE
:10505000843F0020064A13681968064B19B94FF0BF
:10506000FF321A6070471268D268D2685268F8E757
:10507000D83E0020AC3F00202DE9F0470A9C02F109
:10508000804280469946013A266B099F06EB8206CC
:1050900026F0070691B34B1E04F134020F31587805
:1050A00002F8010B13F8010F08B18B42F7D100236E
:1050B00084F84330089D4FF0000A201D062DC4F8E7
:1050C00048A028BF0625E5626564C5F10705FFF71E
:1050D000A8F904F11800FFF7A4F9C4F84CA0246162
:1050E0004A46A56141466462304684F850A0FFF705
:1050F000F3F9206007B13C60BDE8F08784F8341014
:10510000D8E710B590F8513004463BB9006BFFF773
:1051100079FB2046BDE81040FFF774BB012BF9D0A6
:10512000022B0AD04FF0500372B683F31188BFF3FD
:105130006F8FBFF34F8F62B6FEE710BDF8B51B4B04
:1051400004461B4E0F461D6830680430FFF78FF988
:10515000334640B931680120164EC96A326888402A
:1051600022EA00023260621C07D137B11968124886
:105170000431BDE8F840FFF757B92C441A68A5423E
:10518000546007D90D4A10681968BDE8F840043129
:10519000FFF756B90A4A106819680431FFF750F949
:1051A000084B1A68944200D21C60F8BDF43F0020FE
:1051B000D43E0020803F0020CC3F0020DC3E002079
:1051C000D83E0020AC3F00204FF0500372B683F36E
:1051D0001188BFF36F8FBFF34F8F62B6FEE770B5D4
:1051E00086B00B9D0C9C0DB9FFF7EEFF54B94FF044
:1051F000500372B683F31188BFF36F8FBFF34F8FE5
:1052000062B6FEE754260596059E542E0AD04FF04E
:10521000500372B683F31188BFF36F8FBFF34F8FC4
:1052200062B6FEE725630225059E84F8515004AD61
:10523000029401950A9D0095FFF71EFF2046FFF797
:105240008DFE049806B070BD2DE9F043074685B089
:105250009000884616469946FFF742FA0546E8B19F
:105260005420FFF73DFA0446A8B1002305633246F7
:10527000414680F851300D9B0290384601930C9BBB
:1052800000934B46FFF7F8FE2046FFF767FE01202C
:1052900005B0BDE8F0832846FFF7B4FA4FF0FF30C1
:1052A000F6E7000070B504462A4DFFF73BF904B954
:1052B0002C68261D3046FFF7DAF860B9E06A142141
:1052C000254B41435B5833B9244901220B68824086
:1052D00023EA02030B60A36A1BB104F11800FFF775
:1052E000C6F81F4A1368013313602B689C421DD116
:1052F00031461C48FFF798F81B4A136801331360C6
:10530000FFF736F9194B1B6813B32B689C421FD16A
:10531000174B1B68A3B14FF0500372B683F311888B
:10532000BFF36F8FBFF34F8F62B6FEE7114A20467F
:105330001368013B1360FFF7E4FEFFF78BFEDFE726
:105340004FF080520C4B1A60BFF34F8FBFF36F8F3B
:1053500070BD00BFD43E0020E03E0020803F002012
:105360007C3F0020E03F0020703F0020C83F00202D
:10537000783F00206C3F002004ED00E0024A1368F3
:1053800001331360704700BF783F00202DE9F84FCC
:105390003D4B1B68002B6FD13C4B1C6801341C60DB
:1053A000CCB93B4B1A68126852B14FF0500372B639
:1053B00083F31188BFF36F8FBFF34F8F62B6FEE7A1
:1053C000344A1968106818601160334A1368013351
:1053D0001360FFF73FFE314D4FF0000B304F2B684D
:1053E0009C420AD3DFF8A8A0DFF8C490DAF80020C6
:1053F0001268A2B94FF0FF322A603A68294BD16A8D
:1054000014224A439A58022A28BF4FF0010B264A19
:105410001268002A0CBF58460120BDE8F88FDAF860
:105420000020D268D66871688C4201D22960E4E716
:1054300006F104084046FFF71AF8B16A19B106F1FF
:105440001800FFF714F8F06A0122D9F800304FF085
:10545000140E02FA00F11943124BC9F8001041462C
:105460000EFB0030FEF7E0FF3868F16AC26A914235
:1054700028BF4FF0010BB9E70C4A4FF0000B13683F
:1054800001331360C3E700BF783F0020F43F0020E2
:10549000D83E0020DC3E0020B03F0020AC3F002082
:1054A000D43E0020E03E0020F83F0020743F002062
:1054B000803F00202DE9F843324C236853B94FF068
:1054C000500372B683F31188BFF36F8FBFF34F8F12
:1054D00062B6FEE7FFF726F82368013B23602468E5
:1054E0002CB10024FFF744F82046BDE8F883264B92
:1054F0001B68002BF5D0DFF8A890244FDFF8A480BC
:10550000D9F80030E3B90CB1FFF7A4FD204D2C68A9
:1055100044B1204E0127FFF739FF00B13760013C4D
:10552000F9D12C601B4B1B68002BDAD04FF0805256
:10553000194B1A60BFF34F8FBFF36F8F0124D1E770
:10554000D9F80C300125DC68261D04F11800FEF79F
:105550008EFF3046FEF78BFFE26A3968142005FAA9
:1055600002F300FB02800B4331463B60FEF75CFF19
:105570000A4BE26A1B68DB6A9A42C1D3054B1D6085
:10558000BEE700BF783F00206C3F0020803F002036
:10559000743F0020F83F002004ED00E0D43E0020DE
:1055A000B43F0020E03E002008B540B94FF08052E3
:1055B0000E4B1A60BFF34F8FBFF36F8F08BD0C4BBC
:1055C000196851B14FF0500372B683F31188BFF3DD
:1055D0006F8FBFF34F8F62B6FEE7FFF7CFFEFFF787
:1055E000ADFDFFF767FF0028E0D008BD04ED00E047
:1055F000783F0020184B1A68184B10B512B10122E1
:105600001A6010BD1A60164B1B68B3FA83F3DBB245
:1056100014221449C3F11F035A438C58881854B9F3
:105620004FF0500372B683F31188BFF36F8FBFF34F
:105630004F8F62B6FEE74468083264680A449442B9
:10564000446004BF62684260142202FB03135B687B
:10565000DA68054BD4E700BF783F0020F83F002010
:10566000803F0020E03E0020D43E002010B50C46D4
:1056700050B94FF0500372B683F31188BFF36F8FA8
:10568000BFF34F8F62B6FEE7054B19681831FEF77E
:10569000D7FE20460121BDE81040FFF74FBD00BFF7
:1056A000D43E002038B5C368DC6854B94FF05003CD
:1056B00072B683F31188BFF36F8FBFF34F8F62B65B
:1056C000FEE704F118052846FEF7D1FE114B1B68D2
:1056D000DBB9251D2846FEF7CAFE0F49E26A012301
:1056E00008689340034314200B6029460B4B00FBD2
:1056F0000230FEF799FE0A4BE26A1B68DB6A9A42A7
:1057000006D90120074B186038BD29460648F0E746
:10571000002038BD783F0020803F0020E03E002080
:10572000D43E0020F83F0020B43F0020034B1B680C
:105730000360034B1B684360704700BFB03F00200D
:10574000F43F002070B50C46054650B94FF05003A9
:1057500072B683F31188BFF36F8FBFF34F8F62B6BA
:10576000FEE751B94FF0500372B683F31188BFF3CF
:105770006F8FBFF34F8F62B6FEE7FEF7D3FE0F4B7E
:1057800069681A682368581C0ED00D482E68006896
:10579000864201D08A420ED2521A9A4209D29B1AEC
:1057A00028462360FFF7C2FF0024FEF7E1FE2046F3
:1057B00070BD002323600124F7E700BFF43F002001
:1057C000B03F00200122014B1A607047F83F0020D3
:1057D000054B1B6833B1054B1B68002B0CBF022027
:1057E0000020704701207047C83F0020783F00200C
:1057F000F8B5044608B90020F8BD244B1B68984250
:105800000AD04FF0500372B683F31188BFF36F8F45
:10581000BFF34F8F62B6FEE7836C53B94FF050036E
:1058200072B683F31188BFF36F8FBFF34F8F62B6E9
:10583000FEE7C16A013B426C83649142DBD0002BDE
:10584000D9D1051D124E2846FEF711FE114A50B956
:10585000E76A1421794373582BB901201368B840C3
:1058600023EA00031360636CC3F10701E362A161E3
:105870000124116804FA03F008432946106014203B
:1058800000FB0360FEF7D0FD2046F8BDD43E0020AB
:10589000E03E0020803F00202DE9F743284C012501
:1058A0004FF000094FF01008264F21464FF6FF72C7
:1058B0000646CDF80490A560C4F80C9084E8200159
:1058C000FCF73BFD38702846FAF7BCFE0223214660
:1058D0004FF6FF723046A560C4F80C9084E80801CA
:1058E000FCF72BFD38702846FAF7ACFE032321465F
:1058F0004FF6FF723046C4F80C9084E80801082384
:10590000A360FCF71AFD38702846FAF79BFE4FF4A7
:1059100008734FF6FF722146019304233046A560B9
:1059200084E80801019BE360FCF707FD40F2036196
:1059300038703046FCF718FD03B0BDE8F08300BFB7
:10594000584400206844002008B503490348FEF786
:10595000B3FC034B187008BD70440020F801002010
:105960007444002070470000064B1A6E596E514374
:10597000002210B58A4200D110BDDC6D44F822002F
:105980000132F7E71065002010B5044C236E03FBCD
:105990000101E36D43F8212010BD00BF1065002018
:1059A0002DE9F74FA3EB0108A2EB000904460D46D1
:1059B000B8F1000F1746B8BFC8F10008B9F1000FE1
:1059C000B8BFC9F10009C84503DD1F460C461346A0
:1059D0000546BC4205D92A461D46134622463C468A
:1059E0001746A3EB050AA7EB040B0222BAF1000F3E
:1059F0009BFBF2F6B8BFCAF1000A9D4234BF0123F7
:105A00004FF0FF330193BC4202D903B0BDE8F08FE1
:105A1000C8450C9ACBBF2846294621462046FFF7A9
:105A2000B3FFB6EB0A0604F1010444BF019B5E46D6
:105A3000A4B244BFED18ADB2E5E700000A4B0B4934
:105A400018680B4AB0F1504F13BF4FF05040196027
:105A50001060186018BF116002211A68054B0648D3
:105A60009A62FBF796BE00BF4800002000FC03D0FE
:105A70004C00002084680140106500204FF0504326
:105A8000044A022104481360044A1360044A9362E2
:105A9000FBF77FBE48000020106500204C0000206E
:105AA00084680140224BD3F800C0224B2DE9F04F0F
:105AB0001B684FF4707400274FF00C0A04FB003091
:105AC0001D4B4FF0800BB3F800801C4BB3F80090D7
:105AD000BCF806309F4228D200EB4106002417E0B4
