:020000040800F2
:10000000000005206D3100080131000803310008AF
:100010000531000807310008093100080000000020
:10002000000000000000000000000000C11C0008EB
:100030000B31000800000000611D00080D310008B0
:10004000BD310008BD310008BD310008BD310008D8
:10005000BD310008BD310008BD310008BD310008C8
:10006000BD310008BD310008BD310008BD310008B8
:10007000BD310008BD310008BD310008BD310008A8
:10008000BD310008BD310008BD310008BD31000898
:10009000BD310008BD310008BD310008BD31000888
:1000A000BD310008BD310008BD310008BD31000878
:1000B000BD310008BD310008BD310008BD31000868
:1000C000BD310008BD310008BD310008BD31000858
:1000D000BD310008BD310008BD310008BD31000848
:1000E000BD310008BD310008BD310008BD31000838
:1000F000BD310008BD310008BD310008BD31000828
:10010000BD310008BD310008BD310008BD31000817
:10011000BD310008BD310008BD310008BD31000807
:10012000BD310008BD310008BD310008BD310008F7
:10013000BD310008BD310008BD310008BD310008E7
:10014000BD310008BD310008BD310008BD310008D7
:10015000BD310008BD310008BD310008BD310008C7
:10016000BD310008BD310008BD310008BD310008B7
:10017000BD310008BD310008BD310008000000009D
:10018000BD310008BD310008BD310008BD31000897
:10019000BD310008BD310008BD310008BD31000887
:1001A000BD310008BD310008BD310008BD31000877
:1001B000BD310008BD310008BD310008BD31000867
:0801C000BD310008BD3100084B
:1001D00010B5054C237833B9044B13B10448AFF381
:1001E00000800123237010BD2800002000000000C3
:1001F0001832000808B5034B1BB103490348AFF39D
:10020000008008BD000000002C000020183200080B
:1002100053B94AB9002908BF00281CBF4FF0FF316D
:100220004FF0FF3000F07AB9ADF1080C6DE904CE63
:1002300000F006F8DDF804E0DDE9022304B07047C1
:100240002DE9F0478C460D460446089E002B51D1FF
:100250008A4217466DD9B2FA82FEBEF1000F0BD06A
:10026000CEF1200C01FA0EF520FA0CFC02FA0EF782
:100270004CEA050C00FA0EF44FEA174A250CBCFBB9
:10028000FAF81FFA87F90AFB18CC45EA0C4508FB77
:1002900009F3AB420AD9ED1908F1FF3280F023814E
:1002A000AB4240F22081A8F102083D44ED1AA4B20D
:1002B000B5FBFAF00AFB105544EA054400FB09F9C6
:1002C000A14509D9E41900F1FF3380F00A81A14565
:1002D00040F2078102383C44A4EB090440EA08409C
:1002E0000021002E61D024FA0EF4002334607360E4
:1002F000BDE8F0878B4207D9002E54D0002186E854
:1003000021000846BDE8F087B3FA83F1002940F0E8
:100310008E80AB4202D3824200F2FA80841A65EBEF
:1003200003050120AC46002E3FD086E81010BDE842
:10033000F08712B90127B7FBF2F7B7FA87FEBEF1D3
:10034000000F34D1EB1B3A0C1FFA87FC0121B3FBE1
:10035000F2F8250C02FB183345EA03450CFB08F3C1
:10036000AB4207D9ED1908F1FF3002D2AB4200F2DF
:10037000D1808046ED1AA3B2B5FBF2F002FB105516
:1003800043EA05440CFB00FCA44507D9E41900F13D
:10039000FF3302D2A44500F2B8801846A4EB0C0447
:1003A00040EA08409DE731463046BDE8F087CEF18F
:1003B000200405FA0EF307FA0EF720FA04F83A0CB7
:1003C00025FA04F448EA0308B4FBF2F14FEA1845B1
:1003D00002FB11441FFA87FC45EA044501FB0CF3BC
:1003E000AB4200FA0EF409D9ED1901F1FF3080F0AB
:1003F0008A80AB4240F2878002393D44EB1A1FFAF3
:1004000088F5B3FBF2F002FB103345EA034500FB2D
:100410000CF3AB4207D9ED1900F1FF386FD2AB42B4
:100420006DD902383D44EB1A40EA01418FE7C1F132
:10043000200722FA07F88B4005FA01F448EA030383
:1004400020FA07FE4FEA134CFD404EEA040EB5FBBE
:10045000FCF94FEA1E440CFB19551FFA83F844EAD5
:10046000054509FB08F4AC4202FA01F200FA01FA70
:1004700008D9ED1809F1FF3043D2AC4241D9A9F1B6
:1004800002091D442D1B1FFA8EFEB5FBFCF00CFB70
:1004900010554EEA054400FB08F8A04507D9E418BA
:1004A00000F1FF3529D2A04527D902381C4440EA83
:1004B0000940A4EB0804A0FB02894C45C6464D4602
:1004C00015D312D056B1BAEB0E0364EB050404FA4F
:1004D00007F7CB401F43CC40376074600021BDE874
:1004E000F0871846F8E69046E0E6C245EAD2B8EB57
:1004F000020E69EB03050138E4E72846D7E74046DA
:1005000091E78146BEE7014678E702383C4445E77B
:10051000084608E7A8F102083D442BE7704700BFF2
:1005200038B50E4B05460E4A18784FF47A73B3FB74
:10053000F0F31068B0FBF3F000F090F8044658B9FF
:100540000F2D09D8024629464FF0FF3000F04EF833
:10055000044B20461D6038BD012038BD000000203E
:100560000C0000200400002008B5032000F02CF847
:100570000F20FFF7D5FF02F075FC002008BD00003A
:10058000034A044B11681B780B441360704700BF8B
:10059000F03F002000000020014B1868704700BFAA
:1005A000F03F002038B50446FFF7F6FF0546631C10
:1005B0001EBF044B1B78E418FFF7EEFF401B84427C
:1005C000FAD838BD00000020074A0002D36800F4C2
:1005D000E06023F4E0631B041B0C43F0BF6343F4AF
:1005E00000330343D360704700ED00E0194B30B592
:1005F000DC68C4F30224C4F10703251D042B28BFC3
:100600000423062D4FF001058CBF033C002405FA9E
:1006100003F3002803F1FF3301EA030101FA04F1B7
:1006200005FA04F404F1FF3402EA040242EA01028A
:100630004FEA021207DB00F16040D2B200F56140E0
:1006400080F8002330BD00F00F00D2B2024B1A54E4
:1006500030BD00BF00ED00E014ED00E00138B0F166
:10066000807F0AD2064BF021064A5860002082F8AB
:100670002310072298601A6070470120704700BF5E
:1006800010E000E000ED00E0BFF35F8F044A536A22
:1006900023F4803353620022024B5A60704700BF3C
:1006A00000ED00E090ED00E0064A40F00100064B4E
:1006B0005860536A43F480335362BFF34F8FBFF3E4
:1006C0006F8F704700ED00E090ED00E04378124A34
:1006D00010B593600178D9B14368D360C37A047BC5
:1006E0001B0643EA04730B43817A43EAC143417B0F
:1006F00043EA8143817B43EA4143C17B43EA0143AF
:10070000417A43EA0123017A43EA4103136110BDB0
:10071000D160116110BD00BF90ED00E02DE9F04FF8
:100720000B6885B0DFF8C081019300236C4ADFF8C5
:10073000BC910124019D9C402540AC4240F0B68014
:100740004C684FEA430E24F0100C0CF1FF36012EDA
:1007500012D80326876806FA0EF627EA0607CE683F
:1007600006FA0EF63E438660C4F3001647689E40C4
:1007700027EA05073E4346600326C768BCF1020F1F
:1007800006FA0EF66FEA060607EA060A8F6807FA07
:100790000EF747EA0A07C76016D14FEAD30A03F0FB
:1007A000070B4FF00F0C00EB8A0A4FEA8B0BDAF8BD
:1007B00020700CFA0BFC27EA0C0C0F6907FA0BF7F8
:1007C00047EA0C07CAF8207007683E4004F00307A8
:1007D00007FA0EFE4EEA06060660E60066D5D8F871
:1007E000446023F0030703F0030E4FF00F0C46F4B0
:1007F000804607F180474FEA8E0EC8F8446007F53F
:100800009C37D8F8446006F480460396039E0CFAA1
:100810000EF6D7F808A02AEA060C324EB0424CD0A9
:1008200006F58066B0424AD006F58066B04248D0F0
:1008300006F58066B04246D006F58066B04244D0E8
:10084000484544D006F50066B04242D006F58066C1
:10085000B04240D006F58066B0423ED006F58066D4
:10086000B04214BF0A26092606FA0EF614F4803F99
:1008700046EA0C06BE606FEA050716680CBF3E40EC
:100880002E4314F4003F166056680CBF3E402E43C2
:1008900014F4801F566096680CBF3E402E43A4029D
:1008A0009660D66854BF3E402E43D6600133102B6D
:1008B0007FF43FAF05B0BDE8F08F0026D4E70126F6
:1008C000D2E70226D0E70326CEE70426CCE70526AA
:1008D000CAE70626C8E70726C6E70826C4E700BF1A
:1008E000003C014000000240003802400014024079
:1008F0000AB1816170470904FBE72DE9F041074621
:100900008AB0002841D090F8B932046803F0FF02A1
:100910001BB980F8B82202F051FB03236D4607F1A2
:1009200004083E4687F8B932E36B3C4613F4807303
:1009300054F8100B08BF3B6101F007F80FCC0FC54E
:100940000FCC0FC594E8030085E8030098E80E007B
:1009500038686D4600F0BEFF56F8100B012100F01C
:10096000FAFF0FCE0FC50FCE0FC594E8030085E840
:10097000030098E80E00386801F046F801230020D3
:1009800087F8B9320AB0BDE8F0810120FAE7D20158
:100990004FF0000C2DE9F043843204684F68A3182F
:1009A000E568D1F800E05868C5F30B450EF1010683
:1009B000D1F8189000F470403D445860E068C0F3EE
:1009C0000B40304440EA0540CD685860E068C0F311
:1009D0000A000544986800F4704098608868E668EA
:1009E0000130C6F30A0630440E6940EA05409860BB
:1009F000186920F0070018611E619D6991F83200A6
:100A000091F83180C3F818C091F8305045EA096573
:100A100045EA082545EA00459D61586920F0FF0038
:100A2000586148695861D86920F4E06020F00700F7
:100A3000D861086ACD690543DD61986A486AC3F8E0
:100A400028C098621EB3012E23D0B01E022822D9DE
:100A5000072E0CBF02200120DD6AA7EB0E0705F070
:100A6000E025DD628D6AC96A45437843033040EA78
:100A70000540D862186B20F4FF6020F0070018636F
:100A80001963A35843F00103A350BDE8F083042089
:100A9000E2E70320E0E70220DEE7000038B5044685
:100AA000002863D090F8A13003F0FF021BB980F852
:100AB000A02002F0F7F90223A06884F8A13023688F
:100AC0009A6922F070429A61626899690243E0680B
:100AD00002432069024360690A4325499A619A6882
:100AE0000A409A609A6842EA0042A0690243E069BB
:100AF0009A60DA680A40DA60DA6842EA0042206AFC
:100B00000243606ADA601A690A401A611A6942EAA5
:100B10000042A06A02431A615A6911405961E16AB0
:100B20005A6942EA0142216B0A435A61D96A94F830
:100B3000360001F07F4194F83550D962D96A94F8B3
:100B400034200A4342EA052242EA00420020DA62E7
:100B50005A6B42F006025A639A6942F001029A61A6
:100B60000123C4F8A40084F8A13038BD012038BDA9
:100B700000F800F0F8B590F8A03006468E4694468E
:100B8000012B4FF002001DD034240D4686F8A10041
:100B9000012704FB026486F8A07038340FCD0FC41F
:100BA0000FCD0FC40FCD0FC42B683046624671467F
:100BB0002360FFF7ECFE336800205F6286F8A170C7
:100BC00086F8A000F8BD90F8A030012B4FF002038A
:100BD00070B5044615D080F8A13034230125534365
:100BE00080F8A050C618F16503F138010144FFF701
:100BF000CEFE236800205D6284F8A15084F8A00036
:100C000070BD184670BD0000194B37B51A6C194CF1
:100C100042F080521A641B6C03F080530193019BD5
:100C2000236843F480332360FFF7B6FC054663680E
:100C3000DA030CD5236843F400332360FFF7ACFCE0
:100C40000C4C054663689B030AD5002006E0FFF7BD
:100C5000A3FC401BB0F57A7FE9D9032003B030BD77
:100C6000FFF79AFC401BB0F57A7FEBD9F5E700BFA0
:100C700000380240007000402DE9F341044608B9F5
:100C800001203FE00368D80710D42368990760D497
:100C90002368190700F1A58023685A0700F1C68070
:100CA000A069002840F0308100202BE0944B9A6826
:100CB00002F00C02042A07D09A6802F00C02082AFB
:100CC0000AD15B685A0207D58D4B1B689B03DCD5A4
:100CD0006368002BD9D1D3E76368894DB3F5803FB2
:100CE00013D12B6843F480332B60FFF755FC844D00
:100CF00006462B689F03C8D4FFF74EFC801B642870
:100D0000F7D9032002B0BDE8F0819BB92B6823F42A
:100D100080332B602B6823F480232B60FFF73CFC8F
:100D200006462B689803B0D5FFF736FC801B642875
:100D3000F7D9E6E7B3F5A02F2B6803D143F480235E
:100D40002B60CEE723F480332B602B6823F48023C1
:100D5000CAE76B4B9A6812F00C0F07D09A6802F042
:100D60000C02082A11D15B6859020ED4644B1A6830
:100D7000920702D5E268012A82D11A68216922F01D
:100D8000F80242EAC1021A6082E7E3685C4DBBB137
:100D90002B6843F001032B60FFF7FEFB06462B6830
:100DA0009F0707D52B68226923F0F80343EAC203A3
:100DB0002B606DE7FFF7F0FB801B0228EFD9A0E75F
:100DC0002B6823F001032B60FFF7E6FB06462B6838
:100DD00098077FF55DAFFFF7DFFB801B0228F6D990
:100DE0008FE76369464D83B16B6F43F001036B6717
:100DF000FFF7D2FB06466B6F9B073FF54DAFFFF742
:100E0000CBFB801B0228F6D97BE76B6F23F0010335
:100E10006B67FFF7C1FB06466B6F9F077FF53CAF23
:100E2000FFF7BAFB801B0228F6D96AE7344B1A6C2D
:100E3000D00027D41A6C012642F080521A641B6C31
:100E400003F080530193019B2E4D2B68D9051BD5D0
:100E5000A3682B4D012B27D12B6F43F001032B6788
:100E600041F28835FFF798FB254F80463B6F9B0783
:100E70003FD5002E3FF414AF214A136C23F080536A
:100E800013640DE70026DFE72B6843F480732B60C3
:100E9000FFF782FB07462B68DA05D9D4FFF77CFB06
:100EA000C01B6428F7D92CE7ABB92B6F41F2883807
:100EB00023F001032B672B6F23F004032B67FFF74D
:100EC0006BFB07462B6F9807D3D5FFF765FBC01B5D
:100ED0004045F7D915E7052B2B6F03D143F00403E9
:100EE0002B67B9E723F001032B672B6F23F0040373
:100EF000B5E7FFF751FBA0EB0800A842B6D900E721
:100F00000038024000700040384DAB6803F00C031D
:100F1000082B41D02B68022823F080732B602ED140
:100F2000FFF73AFB06462B68990122D4226AE3694F
:100F30001343626A43F0005343EA8213E26A43EACE
:100F40000263A26A294C5208013A43EA02436B60E9
:100F50002B6843F080732B60FFF71EFB0546236868
:100F60009A013FF5A1AEFFF717FB401B0228F6D907
:100F7000C7E6FFF711FB801B0228D4D9C1E6FFF7B3
:100F80000BFB04462B689B017FF58EAEFFF704FB3D
:100F9000001B0228F6D9B4E601286B683FF4B2AE14
:100FA00003F48002E1698A427FF46AAE03F03F02F3
:100FB000216A8A427FF464AE47F6C072616A1A40C1
:100FC000B2EB811F7FF45CAEA26A03F44031520899
:100FD000013AB1EB024F7FF453AEE26A03F0706363
:100FE000B3EB026F14BF012000208BE600380240F3
:100FF000134908B58B6803F00C03042B03D0082BAE
:1010000003D0104808BD104808BD4A684B684968BD
:1010100002F03F0213F48003C1F388111ABF0A489B
:1010200000230848A1FB0001FFF7F2F8044B5B68BE
:10103000C3F3014301335B00B0FBF3F008BD00BF15
:10104000003802400024F40040787D012DE9F04191
:101050000D46044610B90120BDE8F081464A1368E8
:1010600003F00F038B4229D321688F0731D4C807BF
:1010700044D4414A136803F00F039D4268D32268A9
:10108000510771D4130707D53C4A2169936823F4AB
:10109000604343EAC1039360FFF7AAFF374B384A26
:1010A0009B68C3F30313D35CD840364B1860364BB0
:1010B0001868FFF735FA0020BDE8F081136823F0C7
:1010C0000F030B431360136803F00F039942C2D15F
:1010D000CAE711F0040F294B03D09A6842F4E0529A
:1010E0009A600E0703D59A6842F460429A609A6843
:1010F000A06822F0F00202439A60B8E761681F4BD3
:1011000001291A681CD112F4003FA4D09A6841F258
:1011100088381A4E22F003020A439A60FFF73CFA1D
:101120000746B368626803F00C03B3EB820FA0D0EC
:10113000FFF732FAC01B4045F3D90320BDE8F08128
:10114000022902D112F0007FDFE712F0020FDCE784
:10115000136823F00F032B431360136803F00F038E
:101160009D427FF478AF8AE70449E0688B6823F4F6
:10117000E05303438B6085E7003C024000380240A7
:101180005D3200080C000020040000202DE9F74328
:101190000268044612F001060BD0B84B996821F49E
:1011A00000019960466B99683143B6FA86F6760974
:1011B000996012F4002512D0B049E56BD1F88C305B
:1011C000B5F5801F23F4401308BF012643EA050349
:1011D00016BFB5FA85F500256D09C1F88C30D1022E
:1011E00010D5A648216CD0F88C30B1F5800F23F4CF
:1011F000400343EA0103C0F88C3000F085810029E8
:1012000008BF012512F0807F18BF0126920631D554
:101210009A4B9B4F1A6C42F080521A641B6C03F07D
:1012200080530193019B3B6843F480733B60FFF75D
:10123000B3F980463B68DB0540F168818F4F3B6F17
:1012400013F4407340F06D81236B03F44072B2F5E8
:10125000407F8A4A40F08B81916823F0704021F4EE
:10126000F81120F4407001439160C3F30B03116F38
:101270000B4313672368DA060CD5804AD2F88C102A
:1012800021F08071C2F88C10D2F88C10A06B014351
:10129000C2F88C105F0408D57849606ED1F89020B0
:1012A00022F440320243C1F89020180408D5734953
:1012B000A06ED1F8902022F440220243C1F8902081
:1012C000D90308D56D49E06ED1F8902022F4401280
:1012D0000243C1F890209A0308D56849206FD1F8DD
:1012E000902022F440020243C1F890205F0608D506
:1012F0006249606CD1F8902022F003020243C1F8E9
:101300009020180608D55D49A06CD1F8902022F0F5
:101310000C020243C1F89020D90508D55749E06C6A
:10132000D1F8902022F030020243C1F890209A05B3
:1013300008D55249206DD1F8902022F0C002024316
:10134000C1F890205F0508D54C49606DD1F8902018
:1013500022F440720243C1F89020180508D547498D
:10136000A06DD1F8902022F440620243C1F8902091
:10137000D90408D54149E06DD1F8902022F44052BB
:101380000243C1F890209A0408D53C49206ED1F858
:10139000902022F440420243C1F890205F0208D519
:1013A0003649A06FD1F8902022F080620243C1F844
:1013B000902098020CD53148E16FD0F89020B1F11F
:1013C000006F22F0006208BF01250A43C0F8902098
:1013D00013F0080F18BF0125590308D52749606F7E
:1013E000D1F8902022F040720243C1F890201A02F6
:1013F00009D52249D4F88000D1F8902022F08052FB
:101400000243C1F89020012E00F0B580B3F1007FB7
:1014100000F0B180012D75D1184D2B6823F0805359
:101420002B60FFF7B9F806462B689F0000F1278173
:1014300021680E0301D5E36B1BB1CD0222D5236CCD
:1014400003BB0E4AD2F88830D2F8880003F4403348
:1014500000F0E0400343606943EA8013A06943EA77
:101460000063C2F88830D2F88C30A06A23F4F853B5
:10147000013843EA0023C2F88C3003E00038024010
:1014800000700040880215D5E36FB3F1006F11D1F1
:10149000824AD2F88830D2F8880003F0706300F0F6
:1014A000E0400343606943EA8013206A43EA004353
:1014B000C2F888300A0719D57849D1F88820D1F8C0
:1014C000883002F0706203F440331343626943EAE8
:1014D0008213E26943EA0273C1F88830D1F88C3094
:1014E000E26A23F440331343C1F88C306B4C236819
:1014F00043F080532360FFF74FF8054623689B00B5
:1015000040F1C480002009E001267BE6FFF744F8A3
:10151000A0EB080064287FF68DAE032003B0BDE881
:10152000F083226B02F4407293423FF48DAE3B6F26
:101530003A6F23F4407342F480323A673A6F22F4F0
:1015400080323A673B673B6FD8077FF57DAEFFF788
:1015500023F841F2883980463B6F99073FF574AE16
:10156000FFF71AF8A0EB08004845F5D9D5E79168D0
:1015700021F4F81178E6494E336823F08063336034
:10158000FFF70AF8074633681B0172D42268D707B1
:1015900012D5636B83B9D6F88430D6F8841003F47F
:1015A000403301F070610B43616843EA8113A16825
:1015B00043EA0173C6F88430160303D5E36BB3F531
:1015C000801F05D0D0021ED5236CB3F5800F1AD131
:1015D0003249D1F88430D1F8840003F4403300F06C
:1015E000E0400343606843EA8013E06843EA006335
:1015F000C1F88430D1F88C00636A20F01F00013BF1
:101600000343C1F88C30D10111D52449D1F884307D
:10161000D1F8840003F0706300F0E0400343606899
:1016200043EA8013206943EA0043C1F88430920101
:101630000DD5236962681B0443EA8213E26843EA1A
:101640000263A26843EA0273144AC2F88430134E5C
:10165000336843F080633360FEF79EFF07463368CC
:101660001B013FF5D7AEFEF797FFC01B6428F6D9E4
:1016700053E7FEF791FFC01B642884D94DE7FEF7BE
:101680008BFF801B64287FF6CFAE46E7FEF784FF12
:10169000401B64287FF632AF3FE700BF00380240AE
:1016A00010B5044690B1437903F0FF0213B90271FB
:1016B00001F06EFC2268022300206371136843F07E
:1016C0000403136001236371A06010BD012010BDED
:1016D00038B50D460446C8B190F82C3003F0FF022F
:1016E0001BB980F82D2001F09FFC0223211D2068EA
:1016F00084F82C3000F035F862682946206800F044
:101700006FF80123002084F82C3038BD012038BD4B
:1017100038B5044690F82C000D46C0B202280DD012
:101720000223206884F82C3000F0A2F82B680020F7
:10173000022B0CBF0523012384F82C3038BD10B5D3
:10174000044690F82C00C0B2022809D00223206879
:1017500084F82C3000F09FF80123002084F82C300E
:1017600010BD0B684A68012BD1F810C003682DE941
:10177000F043D1F80890D1F80C804D698C69D1F80C
:101780001CE00F6A4E6A14D023F4FF4323F07F035A
:101790001A4342EA090242EA080242EA0C032B43D6
:1017A000234343EA0E033B43334303600020BDE879
:1017B000F083416823F4F84321F4FF4143EA0E0328
:1017C00021F07F013B430A431E4342EA09020660BF
:1017D00042EA080242EA0C032B4323434360E5E755
:1017E000012AD1F80CC0F0B591E808408F680D6966
:1017F0004E6989691BD082680EF1FF3E013B0CF1F6
:10180000FF3C02F07042013D013E013942EA0E12F6
:101810001A437B1E42EA032343EA0C3343EA05439F
:1018200043EA065343EA016383600020F0BD846805
:101830000EF1FF3EC268013B24F470040CF1FF3C42
:1018400002F07042013E24F47044013942EA0E1263
:1018500044EA0C341A437B1E44EA065642EA032249
:101860006B1E866042EA034343EA0163C360DCE720
:1018700091E80C0013B51343CA680446002043EAFC
:1018800042238A680190013A43EA42130193019B83
:10189000236102B010BD436943EA41014161002068
:1018A000704700000A4B013B01D1032070470269D9
:1018B000002AF8DA0369064A43F001030361013A9A
:1018C000F3D0036913F00103F9D11846704700BF44
:1018D000410D030084B038B505AD044685E80E001F
:1018E0000A9B012B26D1836B23F480338363C36867
:1018F00023F4840323F04003C360C36823F440133C
:10190000C360119B012B03D1C36843F48013C360F0
:101910002046FFF7C7FF089B012B07D1A36843F0C0
:101920000603A360A36843F02003A360BDE838402A
:1019300004B07047C36843F04003C360FFF7B2FFD1
:10194000A36B43F48033A363E5E7836823F00103CB
:1019500083600020704708B5C368012923F0C043A5
:10196000C36008D1C36843F00053C3603220FEF760
:1019700019FE002008BD19B9C36843F08043F4E79D
:10198000012008BD8901074A41F020010161013AA7
:1019900005D0036913F02003F9D1184670470320DE
:1019A000704700BF410D03001023064A0361013A4E
:1019B00005D0036913F01003F9D1184670470320CE
:1019C000704700BF410D030082B000230193D0F89F
:1019D00040340193019B23F02E030193019BDA0411
:1019E00006D4012904D1019B43F48053C0F840344C
:1019F000019BDB0405D521B9019B23F48053C0F87A
:101A00004034002002B0704784B038B5044605A8C1
:101A100080E80E000023C4F8003EA36B23F40013FB
:101A2000A363E36BDA053FD5079B012BD4F80034A1
:101A30003CD143F00403C4F8003410212046FFF7E2
:101A4000A1FF2046FFF7B0FF0023069904F5A0622E
:101A50004FF0FF301D468B422BD101212046FFF76E
:101A6000B3FFC820FEF79EFD0023A3614FF0FF33B4
:101A70006361E36BDB0521D54FF40073636203F10F
:101A80008073A362114BC4F80031089B1BB9A36992
:101A900043F01003A361A26900200D4B1343A3611F
:101AA000BDE8384004B07047D4F8003423F0040394
:101AB000C1E790600133D5602032CCE780236362B8
:101AC00003F5C003A362034BDDE700BF0003E000A2
:101AD000080020A3E00040000F4B30B55D7A05F010
:101AE000FF04B5B95D7A5C555D7A03EB85056860E6
:101AF000587A184402725A7AD2B2501C3032C0B2AC
:101B000058723A230A7020464B702F23CC708B708A
:101B100030BD012030BD00BF440000200022FFF78F
:101B2000DBBF08B500F01AFD002008BD70B5054602
:101B300046690B4686B0406829682A69B5F90840AD
:101B400076B1AD6965B1842C029514BF03340024CD
:101B50008DE8500000F033FC0590059806B070BD8C
:101B6000842C05AD92B214BF033400248DE83000FC
:101B700000F05AFC0128F0D00020EFE7002808BF51
:101B8000012008B500F038FE002008BD00F1080370
:101B90004FF0FF324360C360036100238260036043
:101BA000704700230361704743689A684B608A60FE
:101BB0009A68516099600368086101330360704757
:101BC0000A68531C30B50AD103695A684A609160AB
:101BD0008B605960036808610133036030BD00F118
:101BE00008035C682568AA42EFD32346F9E74168F9
:101BF000826803698A60826851605968884208BFB8
:101C00005A60002202611A68013A1A601868704727
:101C1000002382B001930F4B1B6801330AD04FF0B1
:101C2000500372B683F31188BFF36F8FBFF34F8FEA
:101C300062B6FEE74FF0500372B683F31188BFF32C
:101C40006F8FBFF34F8F62B6019B002BFCD002B0A9
:101C5000704700BF0800002008480068006880F353
:101C600008884FF0000080F3148862B661B6BFF3B5
:101C70004F8FBFF36F8F00DF00BF000008ED00E063
:101C8000DFF80C00016841F470010160704700004A
:101C900088ED00E04FF0807321F0010140F8202C26
:101CA00044380364034BC16383636FF00203036230
:101CB000704700BF111C0008000000000000000079
:101CC000074B19680868B0E8F04F80F30988BFF344
:101CD0006F8F4FF0000080F311887047AFF30080E2
:101CE000703C00204FF0500372B683F31188BFF3AD
:101CF0006F8FBFF34F8F62B60B4A13680133012B0E
:101D000013600FD1094B1B6813F0FF0F0AD04FF07F
:101D1000500372B683F31188BFF36F8FBFF34F8FF9
:101D200062B6FEE7704700BF0800002004ED00E047
:101D3000094A136853B94FF0500372B683F3118800
:101D4000BFF36F8FBFF34F8F62B6FEE7013B1360A7
:101D50000BB983F3118870470800002000000000D1
:101D6000EFF30980BFF36F8F154B1A681EF0100F49
:101D700008BF20ED108A20E9F04F10602DE909001E
:101D80004FF0500072B680F31188BFF34F8FBFF34E
:101D90006F8F62B600F056FD4FF0000080F311889F
:101DA00009BC19680868B0E8F04F1EF0100F08BFB2
:101DB000B0EC108A80F30988BFF36F8F704700BFC3
:101DC000703C002008B54FF0500372B683F31188C1
:101DD000BFF36F8FBFF34F8F62B600F0FFFB18B1F8
:101DE0004FF08052024B1A60002383F3118808BD24
:101DF00004ED00E00023084A084913600B604FF42B
:101E00007A71074B1B68B3FBF1F30649013B0B608A
:101E100007231360704700BF10E000E018E000E007
:101E20000C00002014E000E02C4B13B51A780021C0
:101E3000D2B20192FF221A701B78294ADBB28DF8C8
:101E400003309DF8033003F0500313700722254B35
:101E50001A609DF80300541E00060FD401B11A60E9
:101E60001A68032A13D04FF0500372B683F3118817
:101E7000BFF36F8FBFF34F8F62B6FEE79DF803206D
:101E800001215200D2B28DF803202246E1E712026E
:101E9000002402F4E0621A60019B104ADBB2137066
:101EA000114B1A6842F470021A601A6842F07042CC
:101EB0001A60FFF79FFF0D4B1C60FFF7E1FE0C4A15
:101EC000136843F040431360FFF7C6FE00F0BAFC0E
:101ED000FFF79EFE204602B010BD00BF00E400E008
:101EE000500000205400002020ED00E008000020F9
:101EF00034EF00E00F4B10B51A68824218D35C68CB
:101F00001919884201BF4168184609195960446887
:101F100001198A4207D1084909688A421FBF5168DE
:101F20001268091941609842026018BF186010BD1C
:101F30001346E1E7683C0020580000202DE9F041FD
:101F4000044600F043FB4049404D0B680BBB404A40
:101F50005607404E1BBFD01D02F570534FF470530F
:101F600020F007001CBF02461B1A002013443260F9
:101F70007060083B23F0070318605860981A0B60E4
:101F80001360354B50601860344B18604FF00043BD
:101F90002B602F68274216D1002C42D004F1080391
:101FA00058071CBF23F00703083363B12B4A166898
:101FB0009046B34207D8274A15686868834204D818
:101FC00009688D4207D100242BE02C68002CF7D043
:101FD0002A462546F1E7296814681160C21A102ABA
:101FE00011D9E81841070AD04FF0500372B683F3B5
:101FF0001188BFF36F8FBFF34F8F62B6FEE7426069
:102000006B60FFF777FF6B6808341349F61A1F43BC
:1020100008680023C8F8006086426F602B6038BFF4
:102020000E6000F06FFB63070AD04FF0500372B6EA
:1020300083F31188BFF36F8FBFF34F8F62B6FEE754
:102040002046BDE8F08100BF580000205C3C002025
:102050005C000020683C0020643C0020603C0020C4
:1020600010B50446002832D0194A50F8043C1268D2
:1020700013420AD14FF0500372B683F31188BFF3B5
:102080006F8FBFF34F8F62B6FEE750F8081C51B157
:102090004FF0500372B683F31188BFF36F8FBFF315
:1020A0004F8F62B6FEE723EA020340F8043C00F0DB
:1020B0008DFA084A54F8043CA4F1080011680B4456
:1020C0001360FFF717FFBDE8104000F01BBB10BD09
:1020D0005C3C0020603C00202DE9F0410646FFF703
:1020E00001FE2D4B2D4C1A682D4F01321A602568C8
:1020F000002D45D126601B68012B1CD178191435A1
:10210000FFF744FD8C2DF9D1DFF8C080254D404606
:10211000FFF73CFD2846FFF739FD2348FFF736FD62
:102120002248FFF733FD2248FFF730FD214BC3F86B
:102130000080214B1D60214A214913680868013342
:1021400013600123F26A9340034314200B60311D96
:1021500000FB0270FFF728FDFFF7EAFD194B1B6833
:1021600063B12368DA6AF36A9A4207D24FF0805269
:10217000154B1A60BFF34F8FBFF36F8FBDE8F0812F
:10218000104B1B68002BD6D12368DA6AF36A9A4297
:10219000D1D82660CFE700BF083D0020703C00206A
:1021A0007C3C0020343D0020503D00207C3D002040
:1021B000683D0020743C0020783C0020183D002041
:1021C0001C3D0020643D002004ED00E0203D002087
:1021D000064A13681968064B19B94FF0FF321A60A6
:1021E00070471268D268D2685268F8E7743C0020E1
:1021F000483D00202DE9F0470A9C02F180428046CC
:102200009946013A266B099F06EB820626F00706DF
:1022100091B34B1E04F134020F31587802F8010BD0
:1022200013F8010F08B18B42F7D1002384F8433033
:10223000089D4FF0000A201D062DC4F848A028BFB5
:102240000625E5626564C5F10705FFF7AAFC04F100
:102250001800FFF7A6FCC4F84CA024614A46A5610B
:1022600041466462304684F850A0FFF713FD2060B9
:1022700007B13C60BDE8F08784F83410D8E710B5AA
:1022800090F8513004463BB9006BFFF7E9FE204659
:10229000BDE81040FFF7E4BE012BF9D0022B0AD0B5
:1022A0004FF0500372B683F31188BFF36F8FBFF303
:1022B0004F8F62B6FEE710BD80B5DFF85C80124F2D
:1022C000124C134D236863B9124B1B68012BF8D9CC
:1022D0004FF08053C8F80030BFF34F8FBFF36F8FBC
:1022E000EEE7FFF7FFFCFB68DE68301DFFF77FFCC1
:1022F0002B68013B2B602368013B2360FFF718FD2F
:102300003046FFF7BCFFDDE77C3D00200C3D0020A0
:10231000083D00207C3C002004ED00E0F8B51B4B9C
:1023200004461B4E0F461D6830680430FFF75FFC03
:10233000334640B931680120164EC96A3268884078
:1023400022EA00023260621C07D137B119681248D4
:102350000431BDE8F840FFF727BC2C441A68A542B9
:10236000546007D90D4A10681968BDE8F840043177
:10237000FFF726BC0A4A106819680431FFF720FCF1
:10238000084B1A68944200D21C60F8BD903D0020B2
:10239000703C00201C3D0020683D0020783C00205F
:1023A000743C0020483D00204FF0500372B683F388
:1023B0001188BFF36F8FBFF34F8F62B6FEE770B522
:1023C00086B00B9D0C9C0DB9FFF7EEFF54B94FF092
:1023D000500372B683F31188BFF36F8FBFF34F8F33
:1023E00062B6FEE754260596059E542E0AD04FF09D
:1023F000500372B683F31188BFF36F8FBFF34F8F13
:1024000062B6FEE725630225059E84F8515004ADAF
:10241000029401950A9D0095FFF7ECFE2046FFF718
:102420005BFE049806B070BD2DE9F043074685B009
:102430009000884616469946FFF780FD0546E8B1AC
:102440005420FFF77BFD0446A8B100230563324604
:10245000414680F851300D9B0290384601930C9B09
:1024600000934B46FFF7C6FE2046FFF735FE0120DE
:1024700005B0BDE8F0832846FFF7F2FD4FF0FF30CE
:10248000F6E7000070B504462A4DFFF72BFC04B9AF
:102490002C68261D3046FFF7AAFB60B9E06A1421BC
:1024A000254B41435B5833B9244901220B688240D4
:1024B00023EA02030B60A36A1BB104F11800FFF7C3
:1024C00096FB1F4A1368013313602B689C421DD191
:1024D00031461C48FFF768FB1B4A13680133136041
:1024E000FFF726FC194B1B6813B32B689C421FD1C6
:1024F000174B1B68A3B14FF0500372B683F31188DA
:10250000BFF36F8FBFF34F8F62B6FEE7114A2046CD
:102510001368013B1360FFF7B2FEFFF759FEDFE7D8
:102520004FF080520C4B1A60BFF34F8FBFF36F8F89
:1025300070BD00BF703C00207C3C00201C3D002092
:10254000183D00207C3D00200C3D0020643D002013
:10255000143D0020083D002004ED00E010B588B0D7
:10256000002407AA06A905A80594069400F01CFA01
:10257000059B00940293069B079A019323460E49FC
:102580000E48FFF71CFFA0B14FF0500372B683F363
:102590001188BFF36F8FBFF34F8F62B64FF0FF32DA
:1025A000074B1A600122074B1A60074B1C60FFF7AC
:1025B0003BFC08B010BD00BF4C320008B922000837
:1025C000483D0020643D0020903D0020024A1368F1
:1025D00001331360704700BF143D00202DE9F84F10
:1025E0003D4B1B68002B6FD13C4B1C6801341C60B9
:1025F000CCB93B4B1A68126852B14FF0500372B617
:1026000083F31188BFF36F8FBFF34F8F62B6FEE77E
:10261000344A1968106818601160334A136801332E
:102620001360FFF7D5FD314D4FF0000B304F2B6895
:102630009C420AD3DFF8A8A0DFF8C490DAF80020A3
:102640001268A2B94FF0FF322A603A68294BD16A6A
:1026500014224A439A58022A28BF4FF0010B264AF7
:102660001268002A0CBF58460120BDE8F88FDAF83E
:102670000020D268D66871688C4201D22960E4E7F4
:1026800006F104084046FFF7B2FAB16A19B106F143
:102690001800FFF7ACFAF06A0122D9F800304FF0C9
:1026A000140E02FA00F11943124BC9F8001041460A
:1026B0000EFB0030FFF778FA3868F16AC26A91427F
:1026C00028BF4FF0010BB9E70C4A4FF0000B13681D
:1026D00001331360C3E700BF143D0020903D00208C
:1026E000743C0020783C00204C3D0020483D0020F8
:1026F000703C00207C3C0020943D0020103D0020D8
:102700001C3D00202DE9F843324C236853B94FF0AB
:10271000500372B683F31188BFF36F8FBFF34F8FEF
:1027200062B6FEE7FFF7DEFA2368013B2360246808
:102730002CB10024FFF7FCFA2046BDE8F883264BB5
:102740001B68002BF5D0DFF8A890244FDFF8A48099
:10275000D9F80030E3B90CB1FFF73AFD204D2C68F1
:1027600044B1204E0127FFF739FF00B13760013C2B
:10277000F9D12C601B4B1B68002BDAD04FF0805234
:10278000194B1A60BFF34F8FBFF36F8F0124D1E74E
:10279000D9F80C300125DC68261D04F11800FFF77C
:1027A00026FA3046FFF723FAE26A3968142005FA60
:1027B00002F300FB02800B4331463B60FFF7F4F964
:1027C0000A4BE26A1B68DB6A9A42C1D3054B1D6063
:1027D000BEE700BF143D0020083D00201C3D002046
:1027E000103D0020943D002004ED00E0703C0020EE
:1027F000503D00207C3C002008B540B94FF080528D
:102800000E4B1A60BFF34F8FBFF36F8F08BD0C4B99
:10281000196851B14FF0500372B683F31188BFF3BA
:102820006F8FBFF34F8F62B6FEE7FFF7CFFEFFF764
:1028300075FDFFF767FF0028E0D008BD04ED00E05C
:10284000143D0020184B1A68184B10B512B1012224
:102850001A6010BD1A60164B1B68B3FA83F3DBB223
:1028600014221449C3F11F035A438C58881854B9D1
:102870004FF0500372B683F31188BFF36F8FBFF32D
:102880004F8F62B6FEE74468083264680A44944297
:10289000446004BF62684260142202FB03135B6859
:1028A000DA68054BD4E700BF143D0020943D0020BA
:1028B0001C3D00207C3C0020703C0020054B1B6828
:1028C00033B1054B1B68002B0CBF02200020704762
:1028D00001207047643D0020143D00202DE9F7439E
:1028E000284C01254FF000094FF01008264F2146D3
:1028F0004FF6FF720646CDF80490A560C4F80C9020
:1029000084E82001FEF704FF38702846FDF74AFEF0
:10291000022321464FF6FF723046A560C4F80C90A2
:1029200084E80801FEF7F4FE38702846FDF73AFE09
:10293000032321464FF6FF723046C4F80C9084E81A
:1029400008010823A360FEF7E3FE38702846FDF770
:1029500029FE4FF408734FF6FF72214601930423BA
:102960003046A56084E80801019BE360FEF7D0FED5
:1029700040F2036138703046FEF7E1FE03B0BDE877
:10298000F08300BFF43F00200440002008B5034955
:102990000348FFF7C3F8034B187008BD0840002038
:1029A000140000200C400020034B0360034B0B601D
:1029B00080231360704700BF983F0020983D00209F
:1029C00070470000064B1A6E596E5143002210B535
:1029D0008A4200D110BDDC6D44F822000132F7E7D5
:1029E000AC60002008B54FF0FF20FFF7EBFF41F28D
:1029F0008830FFF7C3F80020FFF7E4FF41F288308A
:102A0000FFF7BCF84FF0FF20FFF7DCFF0020BDE828
:102A10000840FFF737BD000070B5B4B03022002188
:102A2000022407A8012500F0EFFB1422002102A8D0
:102A300000F0EAFB0021842213A800F0E5FB254BFF
:102A40004FF4803607A81A6C42F080521A641B6C4F
:102A500003F080530093009B1F4B1A6842F44042DE
:102A60001A601B68079503F4404308960D94019380
:102A7000019B4FF4800311940E9319230F934FF48D
:102A8000D873109308231293FEF7F6F8FEF7BCF8FC
:102A90000F23072102A802930023039404934FF409
:102AA000A05305934FF480530693FEF7CFFA0B4BD8
:102AB00013A819941393C0231B95189303231D95F2
:102AC0001A934FF000631E963293FEF75FFB34B00B
:102AD00070BD00BF003802400070004008002000B8
:102AE00080B598B00021102200240BA800F08CFBC8
:102AF000FDF7CAFD4FF0404201230BA80C921522AE
:102B00008DF82C308DF8342003228DF83A308DF872
:102B100037208DF82D408DF835408DF836408DF8F2
:102B200038408DF839408DF83B40FDF7CFFD04204B
:102B3000FDF7BAFDBFF34F8FBFF36F8FB54BC3F8EF
:102B40005042BFF34F8FBFF36F8F5A6942F4003288
:102B50005A61BFF34F8FBFF36F8FC3F88440BFF349
:102B60004F8FD3F8802043F6E076C2F3C904C2F356
:102B70004E32A507520102EA060E2846214640EAD7
:102B80000E07013900F14040C3F860724F1CF6D1C6
:102B9000203A12F1200FEED1BFF34F8F5A6942F461
:102BA00080325A61BFF34F8FBFF36F8FFDF7DCFCAC
:102BB0000024FFF731FF142200210BA800F024FBB2
:102BC000954B082195481A6B02274FF001084FF4E6
:102BD000805942F01002924D924E1A631A6B02F025
:102BE00010020092009A1A6B42F001021A631A6BEB
:102BF00002F001020192019A1A6B42F040021A633C
:102C00001A6B02F040020292029A1A6B42F40072AE
:102C10001A631A6B02F400720392039A1A6B42F061
:102C200008021A631A6B02F008020492049A1A6BE3
:102C300042F480621A631A6B02F480620592059A6C
:102C40001A6B42F020021A631A6B02F020020692FD
:102C5000069A1A6B42F480721A631A6B02F480723D
:102C60000792079A1A6B42F080021A631A6B02F0FD
:102C700080020892089A1A6B42F004021A631A6BD7
:102C800002F004020992099A1A6B42F002021A63D6
:102C900001221B6B03F002030A930A9BFDF728FE37
:102CA000002202216048FDF723FE01224FF48051EB
:102CB0005D48FDF71DFE08230BA958480B93CDF87E
:102CC00030800D940E97FDF729FD0BA956480B9700
:102CD000CDF830800D940E94FDF720FD0BA95248DD
:102CE000CDF82C90CDF830800D940E97FDF716FDA1
:102CF000342221460BA800F087FA4C4B2846AC60E2
:102D0000EC602C6185F8344085F8354085F8364014
:102D100085E8180028236B610923AB613523EB613B
:102D20000B232B6240F215236B6240F21B13AB6244
:102D300040F23523EB6240F21D132B63FDF7AEFE2C
:102D4000FF214FF4F0724FF48873284610914FF42E
:102D5000C0610C92129107211592224613910BA982
:102D60000E9316930B940D940F94119414948DF864
:102D70005C408DF85D408DF85E40FDF7FBFE2C4B0E
:102D80002C480360FEF78CFCFFF700FE1C22214656
:102D90000BA800F039FA284B04220BA93046B46086
:102DA000F2600D927461F461C6F82490B4620B97DE
:102DB0000F971097119786E81800102333614FF48E
:102DC0008073B3614FF40063336206230C930E9358
:102DD000FEF77EFC19481A4BC0F80C8003600C23E8
:102DE000046183608761C46104624463FDF785FD0B
:102DF000FFF7E6FD3046134EFFF770FD22464FF019
:102E0000404128460BADFDF7DEFE0FCE0FC596E81C
:102E1000070019E000ED00E0003802400028024001
:102E2000AC600020286400200020024000680140BF
:102E30000008065018640020400100A054610020E2
:102E4000000004403032000885E8070021460BA846
:102E5000FEF76CFE024B1860FEF763FEFEE700BF54
:102E6000A86000200E4B07B51A6C0F216FF001000F
:102E700042F080521A641A6C02F080520092009A5A
:102E80005A6C42F480425A6400225B6C03F4804323
:102E90000193019BFDF7AAFB03B05DF804FB00BFA3
:102EA0000038024070B514228AB0044600210DEBB0
:102EB000020000F0A9F92268304B9A425CD103F578
:102EC000504302240E2505A95A6C00262C4842F0D6
:102ED00080625A645A6C02F080620092009A1A6B07
:102EE00042F400721A631A6B02F400720192019AA2
:102EF0001A6B42F480621A631A6B02F480620292C7
:102F0000029A1A6B42F040021A631A6B02F04002F6
:102F10000392039A1A6B42F480721A631B6B069435
:102F200003F48073089409950493049B4FF6FF7390
:102F30000593FDF7F3FBF72305A9124805930694C3
:102F4000079608940995FDF7E9FB4FF4805305A90E
:102F50000D48059309230694099307960894FDF7F5
:102F6000DDFB4FF4464305A90848059306940796F0
:102F700008940995FDF7D2FB0AB070BD00680140C6
:102F800000240240002802400018024000200240B5
:102F9000026882B0074B9A4209D1074B5A6B42F044
:102FA00040025A635B6B03F040030193019B02B044
:102FB000704700BF000806500038024010B588B0C6
:102FC00004461422002103A800F01EF92268134BC6
:102FD0009A4220D1124C1348236B43F0020323631F
:102FE000236B03F002030193019B4FF440430393CF
:102FF00002230493032306930C230DEB0301079391
:10300000FDF78CFB236B43F000532363236B03F02A
:1030100000530293029B08B010BD00BF00000440A3
:103020000038024000040240F0B587B014220021AD
:1030300001A800F0E9F82A4B1E68002E4DD10122AC
:10304000022703250C241A6001A9264B26489A6BF7
:1030500042F001029A639B6B029703F0010304950F
:1030600005940093009B4FF683730193FDF756FB85
:1030700048F2131301A91D48019302970396049582
:103080000594FDF74BFB4CF2037301A9184801931B
:103090000297039604950594FDF740FB4FF63F0316
:1030A00001A9144801930297039604950594FDF72E
:1030B00035FB282301A91048019302970396049534
:1030C0000594FDF72BFB082301A90C4801930297F7
:1030D000039604950594FDF721FB07B0F0BD00BFF2
:1030E000EC3F00200038024000100240001802406F
:1030F000000C024000140240001C02400008024084
:103100007047FEE7FEE7FEE7FEE7704708B5FDF70C
:1031100037FAFFF7D3FB012803D0BDE80840FEF7DC
:1031200051BE08BD054BD3F8882042F47002C3F8A5
:1031300088204FF000629A60704700BF00ED00E009
:10314000024B01221A701878704700BF100000204F
:10315000002070470120704700207047024B012279
:103160001A701878704700BF10000020DFF834D0C4
:10317000002103E00C4B5B58435004310B480C4BCF
:1031800042189A42F6D30B4A02E0002342F8043B6D
:10319000094B9A42F9D3FFF7C5FF00F011F8FFF78A
:1031A0009FFC7047000005208032000800000020CE
:1031B00028000020280000205C640020FEE70000BA
:1031C00070B50D4E0D4CA41BA4100025A54209D1CD
:1031D0000B4E0C4C00F020F8A41BA4100025A542B7
:1031E00005D170BD56F8253098470135EEE756F801
:1031F000253098470135F2E7783200087832000828
:10320000783200087C32000802440346934200D121
:10321000704703F8011BF9E7F8B500BFF8BC08BC1C
:103220009E467047F8B500BFF8BC08BC9E46704784
:1032300051320008E52900080000000000000000ED
:1032400080000000000000000000000049444C45E0
:103250000064656661756C745461736B00000000F6
:103260000000000000010203040607080900000036
:08327000D0CFFF7F0100000038
:04327800F501000854
:04327C00D101000874
:103280000100000010000000AAAAAAAA0024F4006D
:10329000010000005D31000841310008593100088B
:0832A00051310008553100080E
:040000050800316D51
:00000001FF
